:100000000C9424060C944C060C944C060C944C0650
:100010000C944C060C944C060C944C060C944C0618
:100020000C944C060C944C060C944C060C944C0608
:100030000C944C060C944C060C944C060C944C06F8
:100040000C9446190C944C060C9414190C94EE184C
:100050000C944C060C944C060C944C060C944C06D8
:100060000C9490190C944C0608000000BE92244990
:10007000123EABAAAA2ABECDCCCC4C3E00000080DA
:10008000BEABAAAAAA3E00000000BF000000803F4D
:100090000000000000084178D3BB4387D1133D190D
:1000A0000E3CC3BD4282AD2B3E68EC8276BED98F3A
:1000B000E1A93E4C80EFFFBE01C4FF7F3F0000007E
:1000C000000007634236B79BD8A71A39685618AEA6
:1000D000BAAB558C1D3CB7CC5763BD6DEDFD753E7D
:1000E000F6177231BF000000803F00407A10F35ACB
:1000F00000A0724E18090010A5D4E80000E8764868
:10010000170000E40B54020000CA9A3B000000E113
:10011000F505000080969800000040420F000000A6
:10012000A08601000000102700000000E803000086
:1001300000006400000000000A0000000000010050
:10014000000000002C76D888DC674F0823DFC1DF71
:10015000AE59E1B1B796E5E3E453C63AE651997674
:1001600096E8E6C28426EB898C9B62ED407C6FFCAE
:10017000EFBC9C9F40F2BAA56FA5F490055A2AF7F0
:100180005C936B6CF9676DC11BFCE0E40D47FEF5F9
:1001900020E6B500D0ED902E030094357705008061
:1001A000841E080000204E0A000000C80C333333C0
:1001B000330F986E12831141EF8D2114893BE65560
:1001C00016CFFEE6DB18D1844B381BF77C1D901D43
:1001D000A4BBE424203284725E228100C9F124ECA5
:1001E000A1E53D27CDCCCC3D0AD7233C17B7D1386C
:1001F00077CC2B329595E6241FB14F0A0000803F43
:10020000CDCCCC3D6F12833A95BFD6337D1D902661
:10021000B3CE010C000020410000C84200401C4643
:1002200020BCBE4CCA1B0E5AAEC59D74000103070C
:100230000F1F3F7F0080C0E0F0F8FCFE00000000D0
:10024000003E5B4F5B3E3E6B4F6B3E1C3E7C3E1C5C
:10025000183C7E3C181C577D571C1C5E7F5E1C00A2
:10026000183C1800FFE7C3E7FF0018241800FFE759
:10027000DBE7FF30483A060E2629792926407F051C
:100280000507407F05253F5A3CE73C5A7F3E1C1C32
:1002900008081C1C3E7F14227F22145F5F005F5FF2
:1002A00006097F017F006689956A606060606094DE
:1002B000A2FFA29408047E040810207E20100808E3
:1002C0002A1C08081C2A08081E101010100C1E0CEE
:1002D0001E0C30383E3830060E3E0E060000000080
:1002E0000000005F00000007000700147F147F1467
:1002F000242A7F2A122313086462364956205000AC
:1003000008070300001C2241000041221C002A1C97
:100310007F1C2A08083E0808008070300008080882
:100320000808000060600020100804023E514945A2
:100330003E00427F400072494949462141494D33C0
:100340001814127F1027454545393C4A4949314127
:10035000211109073649494936464949291E0000F5
:10036000140000004034000000081422411414144A
:100370001414004122140802015909063E415D5936
:100380004E7C1211127C7F494949363E414141223F
:100390007F4141413E7F494949417F090909013E69
:1003A000414151737F0808087F00417F4100204090
:1003B000413F017F081422417F404040407F021CA2
:1003C000027F7F0408107F3E4141413E7F090909B9
:1003D000063E4151215E7F09192946264949493285
:1003E00003017F01033F4040403F1F2040201F3F4B
:1003F0004038403F631408146303047804036159D0
:10040000494D43007F414141020408102000414111
:10041000417F0402010204404040404000030708BD
:100420000020545478407F284444383844444428B9
:10043000384444287F385454541800087E09021860
:10044000A4A49C787F0804047800447D40002040E8
:10045000403D007F1028440000417F40007C04782C
:1004600004787C080404783844444438FC18242474
:100470001818242418FC7C080404084854545424F4
:1004800004043F44243C4040207C1C2040201C3C71
:100490004030403C44281028444C9090907C446468
:1004A000544C4400083641000000770000004136FB
:1004B000080002010204023C2623263C1EA1A16181
:1004C000123A4040207A38545455592155557941B3
:1004D0002254547842215554784020545579400C88
:1004E0001E5272123955555559395454545939556B
:1004F0005454580000457C410002457D42000145AE
:100500007C407D1211127DF0282528F07C54554541
:10051000002054547C547C0A097F493249494932AD
:100520003A4444443A324A4848303A4141217A3ABE
:1005300042402078009DA0A07D3D4242423D3D408A
:1005400040403D3C24FF2424487E4943662B2FFC39
:100550002F2BFF0929F620C0887E090320545479E7
:10056000410000447D413048484A32384040227AB8
:10057000007A0A0A727D0D19317D2629292F282635
:100580002929292630484D4020380808080808083D
:100590000808382F10C8ACBA2F102834FA00007B96
:1005A000000008142A142222142A140855005500A9
:1005B00055AA55AA55AAFF55FF55FF000000FF0098
:1005C000101010FF00141414FF001010FF00FF1093
:1005D00010F010F0141414FC001414F700FF0000C5
:1005E000FF00FF1414F404FC141417101F10101F44
:1005F000101F1414141F00101010F0000000001F32
:10060000101010101F10101010F010000000FF103C
:100610001010101010101010FF10000000FF140038
:1006200000FF00FF00001F10170000FC04F414146A
:100630001710171414F404F40000FF00F714141436
:1006400014141414F700F7141414171410101F10B6
:100650001F141414F4141010F010F000001F101FD9
:100660000000001F14000000FC140000F010F01047
:1006700010FF10FF141414FF141010101F000000BE
:1006800000F010FFFFFFFFFFF0F0F0F0F0FFFFFFC2
:100690000000000000FFFF0F0F0F0F0F3844443819
:1006A00044FC4A4A4A347E02020606027E027E0268
:1006B00063554941633844443C04407E201E200673
:1006C000027E020299A5E7A5991C2A492A1C4C72B0
:1006D00001724C304A4D4D303048784830BC625A37
:1006E000463D3E494949007E0101017E2A2A2A2AC7
:1006F0002A44445F444440514A444040444A5140A3
:100700000000FF0103E080FF000008086B6B083663
:1007100012362436060F090F0600001818000000D4
:100720001010003040FF0101001F01011E00191DC3
:100730001712003C3C3C3C00000000000000000898
:100740000002010000030407000000000000000098
:1007500000000000240027002A00DB40A4A62EAFE2
:100760002000A1C8D300408DAED580A801020408A6
:10077000102040800102040810200102040810200B
:1007800000000000250028002B00040404040404D9
:100790000404020202020202030303030303000033
:1007A000600000000000000000000000000000E009
:1007B0000000000000000000000000000001E00058
:1007C00000000000000000000000000001F0000038
:1007D000000000000000000000000003F000000026
:1007E0000000000000000000000007F00000000012
:1007F00000000000000000000007F80000000000FA
:1008000000000000000000000FF800000003C0001E
:100810007E000001E0007F0FF800000003C000FE32
:10082000000001E000FFEFF800000003C000FE0040
:100830000001E000FFFFF800000003C000F000002E
:10084000000F007FFE7FC0000003C000F00000002A
:100850000F003FFE7FF83FF1FBCFFCFEF3BC3DEF06
:10086000E01FFE7FFF7FFBFFDFFEFEFFBC3DEFE0F2
:100870001FC6FFFF7FFBFFDFFEFEFFBC3DEFE00F6B
:10088000E3C7FE787BC3DE1EF0FFBC3DEF0007FF31
:1008900087FC787BC3DE1EF0F83C3DEF0001FFFFD4
:1008A000F0007BC3C01EF0F03C3DEF0001F37FE0A1
:1008B0003FFBC3CFFEF0F03C3DEF0003E33F807F02
:1008C000FBC3DFFEF0F03C3DEF0007E73C00787B28
:1008D000C3DE1EF0F03C3DEF0007FFBE00787BC397
:1008E000DE1EF0F03C3DEF0007FFFE00787BC3DE2C
:1008F0001EF0F03C3DEF000FFFFE007FFBFFDFFE30
:10090000F0F03FFDEFE00FFFFF007FFBFFDFFEF0A9
:10091000F03FFDEFE00FF9FF003E79F9CF9EF0F0D8
:100920001F3DE7E01FF1FF00000000000000000095
:100930000000001F80FF007FFFFFFFFFFFFFFFFFA2
:10094000FFE01C007F007FFFFFFFFEB46D888D1865
:10095000E000001F007FFFFFFFFE95AD7DB577E053
:1009600000000F007FFFFFFFFEA5AD9D8D19E00089
:100970000006007FFFFFFFFEB5ADEDB57EE0000095
:100980000000000180000000000000000000038063
:1009900000000000000000000007C0000000000090
:1009A0000000000007C00000000000000000000F71
:1009B000C00000000000000000001FE00000000078
:1009C00000000000001FE000000000000000000028
:1009D0003FE00000000000000000003FF0000000C9
:1009E0000000000000007FF0000000000000001F79
:1009F000F87FF0000000000000003FFE7FF00000E4
:100A000000000000003FFF7FF00000000000000039
:100A10001FFFFBE0000000000000000FFFF9FFC017
:100A20000000000000000FFFF9FFF80000000000C8
:100A30000007FFF1FFFF00000000000003FC73FF50
:100A4000FF80000000000001FE3FFFFF800000006B
:100A5000000000FF1E0FFF000000000000007FFEEE
:100A60001FFC000000000000003FFFFFF800000036
:100A7000000000000FDFFFE0000000000000001F8A
:100A800019FFC0000000000000003F3CFF00000014
:100A900000000000007E7CF8000000000000000064
:100AA0007FFE7C0000000000000000FFFFFC000053
:100AB000000000000000FFFFFE000000000000003A
:100AC00000FFFFFE0000000000000001FFEFFE003D
:100AD00000000000000001FFCFFE00000000000049
:100AE0000003FF07FE0000000000000003FC07FEFB
:100AF0000000000000000003F003FE000000000002
:100B00000000018000FE0000000000000000000066
:100B10007E000000000000000000003E0000000019
:100B20000000000000000C00000000000007800032
:100B3000FC000003C0000000078001FC000003C0AF
:100B4000000000078001FC000003C00000000780D7
:100B500001E00000001E000000078001E00000002E
:100B60001E007FE3F79FF9FDE7787BDFC0FFF7FF0B
:100B7000BFFDFDFF787BDFC0FFF7FFBFFDFDFF7806
:100B80007BDFC0F0F787BC3DE1FF787BDE00F0F74C
:100B900087BC3DE1F0787BDE0000F787803DE1E037
:100BA000787BDE007FF7879FFDE1E0787BDE00FF4A
:100BB000F787BFFDE1E0787BDE00F0F787BC3DE121
:100BC000E0787BDE00F0F787BC3DE1E0787BDE007B
:100BD000F0F787BC3DE1E0787BDE00FFF7FFBFFD6B
:100BE000E1E07FFBDFC0FFF7FFBFFDE1E07FFBDF60
:100BF000C07CF3F39F3DE1E03E7BCFC000000000EE
:100C000000000000000000FFFFFFFFFFFFFFFFFFED
:100C1000FFC0FFFFFFFFFD68DB111A31C0FFFFFFC0
:100C2000FFFD2B5AFB6AEFC0FFFFFFFFFD4B5B3B55
:100C30001A33C0FFFFFFFFFD6B5BDB6AFDC02200C4
:100C4000FF210000AF1A262111241FBECFEFD8E0EC
:100C5000DEBFCDBF11E0A0E0B1E0E2E1F4E502C00B
:100C600005900D92AA3BB107D9F723E0AAEBB1E0BA
:100C700001C01D92AB36B207E1F716E0C3E2D6E041
:100C800004C02197FE010E94EF27C232D107C9F7A5
:100C90000E94321B0C94FC290C94000008950895C6
:100CA0000895AF92BF92CF92DF92EF92FF920F938F
:100CB0001F93CF93DF936C017B018B01040F151FF2
:100CC000EB015E01AE18BF08C017D10759F069915A
:100CD000D601ED91FC910190F081E02DC6010995BE
:100CE000892B79F7C501DF91CF911F910F91FF906B
:100CF000EF90DF90CF90BF90AF900895FC01538D9F
:100D0000448D252F30E0842F90E0821B930B5417E5
:100D100010F0CF96089501970895FC01918D828D72
:100D2000981761F0A28DAE0FBF2FB11D5D968C910B
:100D3000928D9F5F9F73928F90E008958FEF9FEF4A
:100D40000895FC01918D828D981731F0828DE80F06
:100D5000F11D858D90E008958FEF9FEF0895FC01C0
:100D6000918D228D892F90E0805C9F4F821B91098D
:100D70008F73992708958EE792E00E94AF0621E0D5
:100D8000892B09F420E0822F089580E090E0892BE0
:100D900029F00E94BB0681110C9400000895FC010B
:100DA000A48DA80FB92FB11DA35ABF4F2C91848DCC
:100DB00090E001968F739927848FA689B7892C9329
:100DC000A089B1898C91837080648C93938D848D7C
:100DD000981306C00288F389E02D80818F7D80837F
:100DE0000895EF92FF920F931F93CF93DF93EC013F
:100DF00081E0888F9B8D8C8D98131AC0E889F989C2
:100E0000808185FF15C09FB7F894EE89FF896083C4
:100E1000E889F98980818370806480839FBF81E045
:100E200090E0DF91CF911F910F91FF90EF90089587
:100E3000F62E0B8D10E00F5F1F4F0F731127E02E62
:100E40008C8D8E110CC00FB607FCFACFE889F9899A
:100E5000808185FFF5CFCE010E94CF06F1CFEB8DCB
:100E6000EC0FFD2FF11DE35AFF4FF0829FB7F8946E
:100E70000B8FEA89FB8980818062CFCFCF93DF938C
:100E8000EC01888D8823B9F0AA89BB89E889F989A2
:100E90008C9185FD03C0808186FD0DC00FB607FCD7
:100EA000F7CF8C9185FFF2CF808185FFEDCFCE010A
:100EB0000E94CF06E9CFDF91CF91089590E0FC0129
:100EC000E45CF84F2491FC01E459F84F3491FC01A3
:100ED000E657F84FE491EE23C9F0222339F023308E
:100EE00001F1A8F4213019F1223029F1F0E0EE0FE0
:100EF000FF1FE058F84FA591B4918FB7F894EC918B
:100F0000611126C030953E233C938FBF0895273052
:100F1000A9F02830C9F0243049F7809180008F7DF6
:100F200003C0809180008F7780938000DFCF84B5ED
:100F30008F7784BDDBCF84B58F7DFBCF8091B000F0
:100F40008F778093B000D2CF8091B0008F7DF9CFA2
:100F50003E2BDACFCF93DF9390E0FC01E459F84FBA
:100F600024918657984FFC0184918823D1F090E01A
:100F7000880F991FFC01E05BF84FA591B491FC012B
:100F8000E058F84FC591D49161110EC09FB7F89405
:100F90008C91E22FE0958E238C932881E223E883C5
:100FA0009FBFDF91CF9108958FB7F894EC91E22B1A
:100FB000EC938FBFF6CF8E3008F08E508770806430
:100FC00080937C0080917A00806480937A00809185
:100FD0007A0086FDFCCF8091780090917900089589
:100FE0003FB7F89480916F0290917002A0917102C6
:100FF000B091720226B5A89B05C02F3F19F001964B
:10100000A11DB11D3FBFBA2FA92F982F8827BC0162
:10101000CD01620F711D811D911D42E0660F771F8A
:10102000881F991F4A95D1F708958F929F92AF928A
:10103000BF92CF92DF92EF92FF924B015C010E9430
:10104000F0076B017C010E94F0076C197D098E0985
:101050009F09683E734081059105A8F321E0821A3B
:101060009108A108B10888EEC80E83E0D81EE11CE3
:10107000F11C81149104A104B10429F7FF90EF90B1
:10108000DF90CF90BF90AF909F908F900895209168
:101090002002260F3327331F21323105ECF4209133
:1010A0004402FC0190E080E0243069F082E0089581
:1010B000A09120022191AC0140505E4FA40FB52FAA
:1010C000B11D2C930196861798F380912002680F2A
:1010D0006093200280E0089581E008951092440218
:1010E00081E0809346021092450261E082E10E9415
:1010F0005E0761E083E10E945E07E9EBF0E080813A
:101100008E7F808380818D7F808388E48093B80088
:1011100085E48093BC000895CF93DF9391E0909392
:10112000FF018823B9F0C091B800D091BA00809136
:10113000BC008A7B8093BC0060E082E10E945E0775
:1011400060E083E10E945E070E946E08D093BA00BF
:10115000C093B800DF91CF910895E091790280911A
:101160007802E81730F4F0E0E652FE4F808190E01C
:1011700008958FEF9FEF0895909179028091780202
:101180002FEF3FEF981748F4E92FF0E0E652FE4FBB
:10119000208130E09F5F90937902C901089580918A
:1011A000780290917902891B990B0895CF92DF9272
:1011B000EF92FF920F931F93CF93DF937C01CB01AC
:1011C0008A0120917D02222389F0EB016B01C40E7C
:1011D000D51ECC15DD0569F06991D701ED91FC9123
:1011E0000190F081E02DC7010995F3CF642F0E9493
:1011F0004708C801DF91CF911F910F91FF90EF90A9
:10120000DF90CF900895CF93DF931F92CDB7DEB7D5
:10121000698320917D022223F9F020917A02203205
:1012200058F021E030E0FC013383228390E080E03D
:101230000F90DF91CF91089580917B02E82FF0E02D
:10124000E654FE4F998190838F5F80937B02809359
:101250007A0281E090E0ECCF61E0CE0101960E943D
:101260004708F7CFCF92DF92EF92FF920F931F9331
:10127000CF93DF93D0917A0281E0D13208F09CC005
:10128000C0917C020E94F0076B017C0180914402B6
:1012900081116CC082E08093440281E08093460219
:1012A0008FEF8093430210926802D0936702AAEBFB
:1012B000B1E0E7E4F2E080E0D8138DC0109269025B
:1012C00080916902CC0FC82BC093690280914502BE
:1012D000813009F084C0109245020E94F0076B0132
:1012E0007C01809169028093BB008091FB01909109
:1012F000FC01A091FD01B091FE01892B8A2B8B2B63
:10130000A1F00E94F0070091FB011091FC012091D7
:10131000FD013091FE016C197D098E099F090617A8
:1013200017072807390708F442C08091BC0083FDE5
:10133000D8CF85EC8093BC000E94F0076B017C0144
:1013400080914402823009F44CC0809143028F3F67
:1013500009F469C080914302803209F466C080912B
:101360004302803309F463C084E026C08091FB010E
:101370009091FC01A091FD01B091FE01892B8A2B77
:101380008B2B09F483CF0E94F0070091FB01109191
:10139000FC012091FD013091FE016C197D098E093F
:1013A0009F09061717072807390708F06FCF8091A4
:1013B000FA010E948C0885E010927B0210927A025A
:1013C00010927D02DF91CF911F910F91FF90EF90CE
:1013D000DF90CF9008959D9191938F5F6DCF85EEB3
:1013E000A9CF8091FB019091FC01A091FD01B091EA
:1013F000FE01892B8A2B8B2B09F4A2CF0E94F007C8
:101400000091FB011091FC012091FD013091FE0142
:101410006C197D098E099F090617170728073907D8
:1014200008F08ECFC4CF80E0C7CF82E0C5CF83E085
:10143000C3CF0895FC016370668B848195812681FA
:101440003781613039F0633029F0918780873387A5
:1014500022870895318720879387828708952F9266
:101460003F924F925F926F927F928F929F92AF9234
:10147000BF92CF92DF92EF92FF920F931F93CF9381
:10148000DF93CDB7DEB76A970FB6F894DEBF0FBE15
:10149000CDBF9A8F898F7A8369834A01D22E1887AC
:1014A0000F833701BC2CDC0159962D913C915A9742
:1014B0002115310509F015C118968D919C91199748
:1014C000681779070CF0D7C11A968D919C9148172F
:1014D00059070CF0D0C14C2C512CB6E0CB9E600DBE
:1014E000711D11247C876B87161617060CF0C3C17B
:1014F000EA2DF0E0FA87E98793E0EE0FFF1F9A9557
:10150000E1F7F88BEF87CF01840F951F18161906A6
:101510000CF0B1C1A98DBA8D58968C91811104C07F
:10152000BFEABD1508F4D394A98DBA8DED91FC9155
:1015300011970284F385E02DCD010995B5E0DB9E7E
:10154000C0011124E981FA81FC83EB83312C212C29
:101550009C01245C3D4F388F2F8B4A2D50E05E8BD1
:101560004D8BEF89F88DE20DF31D44919E828D82A3
:10157000D12CC12C69817A81620D731D7A8B698BA4
:10158000842F90E09C8B8B8BE98DFA8DA081B181AB
:1015900040FF82C0F1E0BF126FC0AF126DC01C9659
:1015A000ED91FC912F813885A4014C0D5D1D698959
:1015B0007A89898D9A8D0995EB89FC89F595E7954E
:1015C0004E2F5FEFC51AD50A6D817E818D899E8968
:1015D000680F791F7E836D8398E0C916D10481F668
:1015E000AFEF2A1A3A0AEB81FC81E40DF51DFC836A
:1015F000EB83F5E02F16310409F0B3CF2F81388546
:1016000026153705B9F0A98DBA8DED91FC91B1E0A1
:10161000BB1257C0AB1255C069817A816B5F7F4F97
:101620000088F189E02D830128E030E0A401898D54
:101630009A8D0995A98DBA8DED91FC911197068827
:10164000F789E02DCD016A960FB6F894DEBF0FBE84
:10165000CDBFDF91CF911F910F91FF90EF90DF9061
:10166000CF90BF90AF909F908F907F906F905F9042
:101670004F903F902F9009941E96ED91FC91EF8032
:10168000F88409851A8592014D815E816B817C8188
:10169000898D9A8D099590CF2F813885261537052C
:1016A00009F48ACF31E0B31207C0A31205C01C961B
:1016B000ED91FC91930178CF1E96ED91FC91730111
:1016C000E0CF6B857C85641975090684F785E02D6C
:1016D00073010F8518899201A401898D9A8D09954E
:1016E000A9CFF90134969491329745915491D91A22
:1016F000B7E0DB9E400D511D1124F9012591349175
:101700003C8B2B8BFA0125903490FA013296749021
:1017100031963491398B329664903196449041E001
:101720004C1518F04A1508F07FC0662D062C000CE9
:10173000770B7C836B83842D042C000C990B9E8388
:101740008D83A98DBA8DED91FC9111970284F3855B
:10175000E02DCD010995512CD12CC12CEA2DF0E0C2
:10176000FA87E9872B2D30E03C872B87A401440DB5
:10177000511D47FC5A95588F4F8B69817A81660DB0
:10178000711D67FC7A957E876D877989C71608F089
:1017900051CF2C2D30E04D815E81420F531FA98522
:1017A000BA854A9FC0014B9F900D5A9F900D1124FE
:1017B000FC01E80DF91DF88BEF87852D612C4F8911
:1017C000588D420F531F5E8B4D8B671408F050C02D
:1017D00044244394480E877041F4C1010196EB897B
:1017E000FC89E20DF31DD4901C01D7FE19C0A98D10
:1017F000BA8DED91FC91662D70E0B1E0BB1219C07D
:10180000AB1217C02D853E85620F731F0484F585CA
:10181000E02D2F8138854D895E89898D9A8D0995B6
:10182000DD0C6394842DD1CF1E821D821C821B820D
:1018300088CF4B815C81640F751FAB85BC856A9F27
:10184000C0016B9F900D7A9F900D112469817A8160
:10185000680F791F0684F785E02DEF80F8840985ED
:101860001A859D014F855889898D9A8D0995D8CF04
:10187000570CC3948ACF6A960FB6F894DEBF0FBE9A
:10188000CDBFDF91CF911F910F91FF90EF90DF902F
:10189000CF90BF90AF909F908F907F906F905F9010
:1018A0004F903F902F9008958F929F92AF92CF923A
:1018B000EF92FF920F931F93CF93DF93EC01262FAC
:1018C000898D9A8D009709F051C06A30D1F41D8638
:1018D0001C868D8948E0849F900111248E859F8508
:1018E000820F931F9F878E8781E090E0DF91CF91D9
:1018F0001F910F91FF90EF90CF90AF909F908F909E
:1019000008956D3089F3CC88AD888F898823C1F024
:101910008C859D8536E0C39E800D911D11244885E0
:1019200059854817590764F44E855F851D861C86C6
:1019300038E0A39EC0011124840F951F9F878E87D6
:10194000EA88FB88088919894E855F856C857D85C5
:10195000CE010E942F0A2C898C859D8546E0249F0C
:10196000800D911D11249D878C87BECF6A3069F44C
:101970001D861C86FC013896E4912D898E859F85F5
:10198000E29F800D911D1124ADCF6D3009F4ACCFD5
:10199000FC0134963491631708F4A6CF3296E49193
:1019A000E61708F4A1CFFC01329685909490462F5B
:1019B000431B342F47E0349F800C911C1124F40109
:1019C000329634913196E4913323A9F1EE2399F1C3
:1019D000CC88F4013596E491AD884F89442301F118
:1019E0000E2E000CFF0BE30FF11DCE9EA001CF9E2B
:1019F000500D11246C857D85460F571F68857985AC
:101A0000641775076CF44E855F851D861C86FC0186
:101A10003896E491AE9E400D511D11245F874E878C
:101A2000EA88FB88088919894E855F856C857D85E4
:101A3000CE010E942F0AF4013496E4912C898C8502
:101A40009D85E29F800D911D11248DCF6F927F9215
:101A50008F929F92AF92BF92CF92DF92EF92FF92BE
:101A60000F931F93CF93DF93EC016B015A01390160
:101A70004801E881F9810284F385E02D0995E88128
:101A8000F9810288F389E02D87019301A501B60150
:101A9000CE010995A501480D591D41505109E88114
:101AA000F9810288F389E02D9301B601CE010995F1
:101AB000E881F9810088F189E02D9401A501B60142
:101AC000CE010995C60CD71CB60161507109E88199
:101AD000F9810088F189E02D9401A501CE010995D5
:101AE000E881F9810688F789E02DCE01DF91CF9159
:101AF0001F910F91FF90EF90DF90CF90BF90AF902C
:101B00009F908F907F906F9009946F927F928F92A9
:101B10009F92AF92BF92CF92DF92EF92FF920F937C
:101B20001F93CF93DF935C01EB016A0149013801F8
:101B30008701DC01ED91FC916217730719F56416BA
:101B400075062CF0962D872D3A01C92ED82E9601B8
:101B5000261937092F5F3F4F048CF58DE02DA30127
:101B6000BE01C5010995DF91CF911F910F91FF90A3
:101B7000EF90DF90CF90BF90AF909F908F907F902D
:101B80006F9008954615570591F42617370724F0EE
:101B9000892D4B01C22FD82F9E01281939092F5F9B
:101BA0003F4F068CF78DE02DA601B401DACF0284F9
:101BB000F385E02D0995D501ED91FC910488F58917
:101BC000E02D83019401A601BE01C5010995D5014F
:101BD000ED91FC910688F789E02DC501DF91CF9149
:101BE0001F910F91FF90EF90DF90CF90BF90AF903B
:101BF0009F908F907F906F900994EF92FF920F9338
:101C00001F93DC011A960D911C911B9718962D912C
:101C10003C911997ED91FC9100A0F1A1E02D7B0181
:101C200050E040E070E060E009951F910F91FF9057
:101C3000EF9008954F925F926F927F928F929F9252
:101C4000AF92BF92CF92DF92EF92FF920F931F93CA
:101C5000CF93DF936C012B015A0139014801DC015C
:101C6000ED91FC910284F385E02D0995E201640C6D
:101C7000751CD601ED91FC91C615D7055CF4008862
:101C8000F189E02D87019401A501BE01C6010995E6
:101C90002196EFCF0688F789E02DC601DF91CF911D
:101CA0001F910F91FF90EF90DF90CF90BF90AF907A
:101CB0009F908F907F906F905F904F9009948F923C
:101CC0009F92AF92BF92CF92DF92EF92FF920F93CB
:101CD0001F93CF93DF93EC015B014A016901E88117
:101CE000F9810284F385E02D099595012C0D3D1DA8
:101CF00021503109E881F9810488F589E02D7801C6
:101D00008401A401B501CE010995E881F981068815
:101D1000F789E02DCE01DF91CF911F910F91FF90B8
:101D2000EF90DF90CF90BF90AF909F908F900994ED
:101D30008F929F92AF92BF92CF92DF92EF92FF92DB
:101D40000F931F93CF93DF93EC015B014A0169016D
:101D50007801E881F9810284F385E02D0995C80CAA
:101D6000D91C860101501109E881F9810488F5899F
:101D7000E02D9501A401B501CE010995E881F98115
:101D80000688F789E02DCE01DF91CF911F910F9149
:101D9000FF90EF90DF90CF90BF90AF909F908F908B
:101DA0000994EF92FF920F931F93DC01ED91FC9148
:101DB00000A0F1A1E02D09951F910F91FF90EF90E8
:101DC00008950F931F93DC01ED91FC91068CF78D24
:101DD000E02D09951F910F9108950F931F93DC013A
:101DE000ED91FC91048CF58DE02D09951F910F91DB
:101DF0000895DC01ED91FC910084F185E02D0994BA
:101E00003F924F925F926F927F928F929F92AF928A
:101E1000BF92CF92DF92EF92FF920F931F93CF93D7
:101E2000DF935C017B014A016901390187E0680E9B
:101E3000711C93E0759467949A95E1F72B01400E1D
:101E4000511E10E000E0312CD0E0C0E0CE018770E0
:101E50009927330C892B59F4FE0183E0F595E7951A
:101E60008A95E1F7E00FF11FE80DF91D349037FE78
:101E70000AC021E030E0A701B5016C0F7D1F87E2A9
:101E800093E00E94F90E2196CC16DD06F9F68FEF4D
:101E9000E81AF80A060D171DE414F504A9F6DF91F7
:101EA000CF911F910F91FF90EF90DF90CF90BF9057
:101EB000AF909F908F907F906F905F904F903F90EA
:101EC00008952F923F924F925F926F927F928F92DE
:101ED0009F92AF92BF92CF92DF92EF92FF920F93B9
:101EE0001F93CF93DF9300D000D000D0CDB7DEB7E3
:101EF0003C016A013E832D83FC82EB825801A41AC7
:101F0000B50AB7FE03C0B194A194B1088D809E803C
:101F1000861A970A97FE03C09194819491088A14B7
:101F20009B045CF0902F812F0D811E819D838E83F9
:101F30009C2D8D2D6B01692F782F0C151D055CF0E4
:101F40009D818E817E836D83692F782F902F812FC5
:101F50008601C92ED82E1601201A310A2B012D8197
:101F60003E81421A530A57FE03C0519441945108CE
:101F7000710137FE03C03FEFE31AF30AF594E794CB
:101F80008D819E81861797075CF5A1E0B0E0BA834A
:101F9000A983C016D1064CF1D301ED91FC910484C4
:101FA000F585E02D2B813C81A8016D817E818A140D
:101FB0009B041CF04D815E81B801C3010995E418B2
:101FC000F508F7FE0AC02D813E8189819A81280F8C
:101FD000391F3E832D83E20CF31C0F5F1F4FD9CFB7
:101FE0002FEF3FEF3A832983D4CF26960FB6F8948C
:101FF000DEBF0FBECDBFDF91CF911F910F91FF903C
:10200000EF90DF90CF90BF90AF909F908F907F9098
:102010006F905F904F903F902F900895EF92FF92B6
:102020000F931F93CF93DF93EC01EC80FD806E152F
:102030007F050CF070C057FF04C0240F351F50E01F
:1020400040E08E819F81FA01E20FF31F8E179F07F8
:102050001CF49C01241B350B121613060CF05BC0FC
:10206000922F842F8695869586958E9DD0018F9D83
:10207000B00D11246A0F7B1FAF8DB8A1A60FB71F3B
:10208000477049F188E0841B482F682F70E0FB01FE
:10209000EC5CFD4FE491281708F063C0621B7109E6
:1020A0002FEF30E002C0359527956A95E2F7E223DD
:1020B0000130110539F0B0F10230110561F58C9154
:1020C000E82702C08C91E82BEC93941720F12C8127
:1020D0003D81A20FB31FE92FE41BE83078F00230F6
:1020E000110521F58E2F9C9190959C932C813D811B
:1020F000A20FB31F88508830B0F7E770EE2359F075
:10210000F0E0E45DFD4FE49101301105F9F010F1CC
:102110000230110519F1DF91CF911F910F91FF90BE
:10212000EF900895E0958C91E823CECF81E00115E2
:10213000110509F480E081959E2F8C932C813D81BF
:10214000A20FB31F98509830C0F7D7CF8C91E82BCF
:10215000EC93E1CFE0958C91E823FACF8C91E827BE
:10216000F7CF0130110509F4ADCFE0F202301105CF
:1021700009F4A5CFAE0DBF1DAECF0F931F93CF9324
:10218000DF9377FF04C0260F371F70E060E0DC01AB
:102190001496CD91DC91FB01E20FF31FCE17DF0700
:1021A0001CF49E01261B370B121613064CF5FA0180
:1021B00057FD3796A3E0F595E795AA95E1F7EC9FD3
:1021C000D001ED9FB00DFC9FB00D11246A0F7B1F55
:1021D000DC015F96ED91FC91E60FF71F47705527E4
:1021E00081E090E001C0880F4A95EAF7482F01305E
:1021F000110559F0A8F02E0F3F1F02301105E1F034
:10220000DF91CF911F910F9108952E0F3F1FE2177D
:10221000F307B1F38191DF011197842B8C93F7CFF2
:1022200080952E0F3F1FE217F30751F39191DF01C5
:10223000119798239C93F7CFE217F30709F3819145
:10224000DF01119784278C93F7CF0F931F93FA0127
:10225000DC0156964C9156974230E9F04330A1F19B
:10226000413061F514964D915C91DA01AE1BBF0BC4
:10227000FD01E21BF30B77FD0BC0DC0116964D91BF
:102280005C916417750724F4AB01BF010E94BD1077
:102290001F910F91089514964D915C91DA01A61B40
:1022A000B70BBD0161507109DC0116964D915C912F
:1022B000DA01AE1BBF0BFD01E21BF30B77FDE8CF8C
:1022C000AF010E940E10E4CF16964D915C91DA0199
:1022D000A61BB70BBD0161507109CDCF0F931F93A2
:1022E000FA01DC0156964C9156974230A9F04330E2
:1022F00091F1413019F514964D915C91DA01AE1BC4
:10230000BF0BFD013197F7FD04C0AB01BF010E9477
:102310000E101F910F91089514964D915C91DA0162
:10232000A61BB70BBD01DC0116964D915C91DA013D
:10233000AE1BBF0BFD013197621B730BF7FDE9CF9D
:10234000DC0116964D915C91E417F50714F7AF0187
:102350000E94BD10DECF16964D915C91DA01A61B4E
:10236000B70BBD01621B730BCECFFC0177FD64C0C0
:1023700080859185681779070CF05EC057FD5CC0B9
:1023800082859385481759070CF056C0868982309C
:10239000B1F0833029F1813041F484819581841B2F
:1023A000950BAB01BC01615071092130310509F178
:1023B00008F443C02230310509F463C008958481D4
:1023C0009581DC01A61BB70BBD01615071098681A7
:1023D0009781DC01A41BB50BAD0141505109E5CF3C
:1023E00086819781861B970BBA01AC014150510938
:1023F000DCCFCA0157FD0796A3E095958795AA956E
:10240000E1F7A481B5818A9F90018B9F300D9A9F3F
:10241000300D1124620F731F078CF0A1E02DE60F21
:10242000F71F4770552721E030E001C0220F4A9581
:10243000EAF78081822B80830895CA0157FD0796B1
:1024400033E0959587953A95E1F7A481B5818A9F08
:1024500090018B9F300D9A9F300D1124620F731FD6
:10246000078CF0A1E02DE60FF71F4770552781E09C
:1024700090E001C0880F4A95EAF780959081892302
:10248000DACFCA0157FD079623E0959587952A95DF
:10249000E1F7A481B5818A9F90018B9F300D9A9FAF
:1024A000300D1124620F731F078CF0A1E02DE60F91
:1024B000F71F4770552721E030E001C0220F4A95F1
:1024C000EAF780818227B7CF08958EBD00000DB452
:1024D00007FEFDCF8EB50895EF92FF920F931F93E5
:1024E000CF93DF937C01C62F8091440390914503E5
:1024F000009709F459C02091480331E030937D02E0
:1025000020937C0210927B0210927A02DC01ED9102
:10251000FC910190F081E02D60E009958701EE24A7
:10252000E394F12CD1E0C150809144039091450394
:10253000CF3F91F1B0E2EB16F104D8F00E943209DE
:10254000809144039091450320914803D0937D02EC
:1025500020937C0210927B0210927A02DC01ED91B2
:10256000FC910190F081E02D60E00995EE24E39468
:10257000F12C8091440390914503F8016491DC01B2
:10258000ED91FC910190F081E02D0995BFEFEB1AE0
:10259000FB0A0F5F1F4FC7CFDF91CF911F910F91A4
:1025A000FF90EF900C943209E0915403F0915503A1
:1025B000908180915A038095892380838701C1503F
:1025C00008F438C0F801849120914203309143030C
:1025D000232B29F00E9465120F5F1F4FF0CF28E0D8
:1025E00030E040E8E0915003F0915103909158039E
:1025F000582F5423D9F05081952B9083E0915203AA
:10260000F0915303908150915903952B9083E09161
:102610005203F09153035081909159039095952363
:102620009083469521503109E9F6D6CF5081909597
:102630009523E3CFDF91CF911F910F91FF90EF9002
:1026400008951F93CF93DF93EC018D8D9E8D00979E
:1026500021F1162F29A131E030937D0220937C02D5
:1026600010927B0210927A02DC01ED91FC910190B4
:10267000F081E02D60E009958D8D9E8DDC01ED915E
:10268000FC910190F081E02D612F09958D8D9E8D3B
:10269000DF91CF911F910C943209ADA5BEA59C91FD
:1026A0008BA9809589238C938B8D9C8D892B31F000
:1026B000862FDF91CF911F910C94651228E030E0B6
:1026C00080E8A9A5BAA599A9462F4823C1F04C9145
:1026D000942B9C93ABA5BCA59C914AA9942B9C934D
:1026E000ABA5BCA54C919AA9909594239C938695F3
:1026F0002150310931F7DF91CF911F9108954C910D
:1027000090959423E6CF8CBD9DBD08951F93CF93E4
:10271000DF93EC01162F8D8D9E8D892BB1F12DA9A4
:102720003EA94FA958AD60E074E284EF90E00E94AA
:10273000042520513109410951095695479537958E
:1027400027952093B80066EA111167EACE010E942E
:1027500021138D8D9E8D892B41F129AD3AAD4BAD65
:102760005CAD60E074E284EF90E00E9404252051AB
:102770003109410951095695479537952795209379
:10278000B800DF91CF911F9108958B8D9C8D892B7F
:1027900021F08EAD9FAD0E948313EFA5F8A9908123
:1027A0008CA9809589238083CECFEFA5F8A980815D
:1027B0009CA9892B8083E5CF089590E080E008955F
:1027C000CF93DF93EC0188819981DC01ED91FC913D
:1027D0000190F081E02D09952A813B81820F931FA2
:1027E0009B838A83DF91CF910895CF93DF93EC0190
:1027F00088819981DC01ED91FC910280F381E02DCB
:1028000009952A813B81820F931F9B838A83DF91E5
:10281000CF9108958F929F92AF92BF92CF92DF9205
:10282000EF92FF920F931F93CF93DF93CDB7DEB755
:1028300066970FB6F894DEBF0FBECDBF6C018E0158
:10284000095E1F4F78018AE0882E912CA12CB12CB3
:10285000CB01BA01A50194010E940425942F852F74
:10286000605DF80162938F01A901692F782F4115EE
:1028700051056105710561F7A7014E1B5F0BBF0193
:10288000C6010E94F51366960FB6F894DEBF0FBE20
:10289000CDBFDF91CF911F910F91FF90EF90DF900F
:1028A000CF90BF90AF909F908F900895EF92FF923E
:1028B0000F931F93CF93DF93EC017B0162E20E94A1
:1028C000E0138701F80161918F01662391F0E6E53D
:1028D000F1E0F280FF2049F0329681816813F9CF50
:1028E0006CE5CE010E94E0136F2DCE010E94E01333
:1028F000E9CF62E2CE01DF91CF911F910F91FF905E
:10290000EF900C94E013FC012581222339F0F8E0CC
:102910002F0290011124820F931F089590E080E010
:10292000089520912D0330912E03C901079697FD3C
:10293000079623E0959587952A95E1F720912B033B
:1029400030912C03829FA001839F500D929F500DC8
:10295000112470E060E080914603909147030C944D
:10296000E529FB0101900020E9F73197AF01461BF3
:10297000570B0C94F5132F923F924F925F926F92E8
:102980007F928F929F92AF92BF92CF92DF92EF92FF
:10299000FF920F931F93CF93DF93CDB7DEB76C9762
:1029A0000FB6F894DEBF0FBECDBF8C011B01DC015A
:1029B00014968C9114978F77863009F474C278F44A
:1029C0008230B0F0843008F04CC212964D915C9188
:1029D00013976D917C91C1010E94F51326C28C3032
:1029E00069F160F4883009F459C28A3009F43FC2B1
:1029F00067E671E0C1010E94B114E5C1803209F4BB
:102A0000ECC18034A9F76BE5C1010E94E013F80125
:102A1000008111810115110509F4DAC1B101C80164
:102A20000E94BB14C8010E9483148C01892B09F4F5
:102A3000CFC16CE2C1010E94E013ECCFF801C0806D
:102A4000D180E280F380A7019601C701B6010E9400
:102A50008A238111CDCF20E030E0A901C701B60162
:102A60000E948A23882379F0A7019601C701B60145
:102A70000E9436259B01AC01C701B6010E948A2342
:102A8000882309F4B5CF20E030E0A901C701B601E1
:102A90000E948A2387FF08C06DE2C1010E94E013F3
:102AA000F7FAF094F7F8F09420E836E948E15BE4AF
:102AB000C701B6010E944A2687FD81C074E1A72E96
:102AC000B12C00E210E0188E1F8AF501EC5EFD4F7C
:102AD0002591359145915491C701B6010E944A262E
:102AE00087FD13C0F501EC51FE4F259135914591BD
:102AF0005491C701B6010E94F0236B017C012F891C
:102B0000388D200F311F388F2F8B1595079534E0A6
:102B1000A31AB1088CEFA8168FEFB806B1F65524AA
:102B20005A9420E030E0A901C701B6010E944A266C
:102B300018160CF04BC02CEA35EC47E257E3C701FE
:102B4000B6010E948A2318160CF440C0A52DB4E0EB
:102B5000AB02C0011124912C812CFC01E450FE4FEA
:102B60003F019C012C5E3D4F59013FEF531671F11F
:102B7000F301E80DF91D6591759185919491A70177
:102B800096010E944A2618169CF4F501E80DF91DDD
:102B90002591359145915491C701B6010E94F023CA
:102BA0006B017C018F89988D801B910B988F8F8B87
:102BB000159507955A9494E0891A9108D6CF00E2AA
:102BC00010E055E0552E188E1F8AABCFC701B60115
:102BD0000E941B264B015C012B013C0106E080E4B6
:102BE00092E4AFE0B0E0898F9A8FAB8FBC8F102F4B
:102BF00001509AE04916510461047104C8F0698DCE
:102C00007A8D8B8D9C8D2AE030E040E050E00E9470
:102C10000425298F3A8F4B8F5C8FC301B2012AE0C4
:102C200030E040E050E00E94042529013A01DFCF66
:102C3000C501B4010E948F239B01AC01C701B601FD
:102C40000E9435256B017C01698D7A8D8B8D9C8D61
:102C50000E948F239B01AC01C701B6010E94F023A3
:102C60002B013C010E941B266B017C010E948F23DB
:102C70009B01AC01C301B2010E9435259B01AC014F
:102C80000E9436250E941B26C60ED71EE81EF91E7E
:102C9000898D9A8DAB8DBC8DC816D906EA06FB06C8
:102CA000D8F09FEF891A990AA90AB90AAF89B88D95
:102CB000AB2B39F1BAE08B169104A104B10408F1F1
:102CC000EF89F88D3196F88FEF8BC12CD12C7601DE
:102CD000812C912C540183942AE0422E512C612C9A
:102CE000712CC701B601A30192010E940425672B34
:102CF000682B692B51F4111644F469017A011150C3
:102D0000F0CFC12CD12C7601E7CFB501A401C101D0
:102D10000E940A14112371F14E01F1E18F0E911CF2
:102D2000012F54019AE0492E512C612C712C015035
:102D300068F0C701B601A30192010E940425605DFD
:102D4000D4016E934D0169017A01F1CF812F90E09A
:102D5000BC0160957095F501E81BF90B31978EE287
:102D6000808344275527461B570B6A0D7B1DC101E5
:102D70000E94F513EF89F88DEF2B29F165E6C1016B
:102D80000E94E0130F89188D17FF07C06DE2C10183
:102D90000E94E013119501951109FE0177969F019C
:102DA0008AE0E82EF12CC801B7010E94D427805D8B
:102DB00082938B01672BB9F7A9014E1B5F0BBF01F3
:102DC000C1010E94F513D10112968D919C9130C0E2
:102DD0006DE5C1010E94E013F6CF6BE7C1010E94CF
:102DE000E013F8010081118101151105D1F0D8011E
:102DF00016966D917C91C1010E9456146AE3C1013F
:102E00000E94E013B101C8010E94BB14C8010E94D6
:102E100083148C01892B29F06CE2C1010E94E0131C
:102E2000E3CF6DE7C1010E94E013F101828193813C
:102E30006C960FB6F894DEBF0FBECDBFDF91CF9179
:102E40001F910F91FF90EF90DF90CF90BF90AF90C8
:102E50009F908F907F906F905F904F903F902F90BA
:102E600008956D917C91C1010E945614DECFCD90E2
:102E7000DD90ED90FC90B701A601F7FE0BC06DE26E
:102E8000C1010E94E01344275527BA014C195D097E
:102E90006E097F09C1010E940A14C7CF4D915D914F
:102EA0006D917C91F7CF8C916CE671E0811102C03D
:102EB00061E771E0C1010E94B114B7CFCF93DF93F6
:102EC000EC0188819981009711F00E949128198264
:102ED00018821D821C821B821A82DF91CF91089575
:102EE000FC0180819181009711F00C949128089544
:102EF0000E94D7290F931F93CF93DF93EC01888112
:102F00009981009759F02A813B812617370730F0C5
:102F100081E0DF91CF911F910F9108958B016F5F39
:102F20007F4F0E941A29009759F0998388831B8349
:102F30000A832C813D81232B59F7FC011082E8CFB5
:102F400080E0E7CFEF92FF920F931F93CF93DF9331
:102F50006115710541F480E0DF91CF911F910F91D0
:102F6000FF90EF90089541155105B1F07B01EC0100
:102F70000C811D81040F151FB8010E947A17882348
:102F800051F3288139818C819D81B701820F931F74
:102F90000E94F5291D830C8381E0DECFCF93DF9360
:102FA000EC01FB0144815581608171810E94A2176F
:102FB000811103C0CE010E945E17CE01DF91CF9137
:102FC0000895EF92FF920F931F93CF93DF93EC013D
:102FD0007B018A01BA010E947A1781110BC0CE01D0
:102FE0000E945E17CE01DF91CF911F910F91FF904C
:102FF000EF9008951D830C83B701888199810E9409
:10300000F529F0CFEF92FF920F931F93CF93DF93A9
:10301000CDB7DEB7A1970FB6F894DEBF0FBECDBF18
:103020007C01CB01BA01F701118210821382128256
:10303000158214828E010F5F1F4F22E044E00E9430
:1030400035210097C9F0FC0101900020E9F7319784
:10305000AF01481B590BBC01C7010E94E117A196A3
:103060000FB6F894DEBF0FBECDBFDF91CF911F9199
:103070000F91FF90EF900895C7010E945E17EFCF68
:1030800085ED8093BC008091FB019091FC01A091A3
:10309000FD01B091FE010796A11DB11D23E0B6957B
:1030A000A795979587952A95D1F72091BC0024FD87
:1030B00003C01092440208954091FB015091FC011D
:1030C0006091FD017091FE01452B462B472B69F362
:1030D0000097A105B10541F025E32A95F1F700001D
:1030E0000197A109B109E1CF8091FA010C948C08F4
:1030F000CF92DF92EF92FF920F931F93CF93DF93C4
:10310000FC018481982F9F7739F4807880628483D2
:103110001182108213821282848185FD0CC0D0E05E
:10312000C0E0CE01DF91CF911F910F91FF90EF9002
:10313000DF90CF9008956115710589F37A016B01D5
:103140008F01C081D1812097C1F16E817F816C1583
:103150007D0539F36115710529F0C6010E94EC293E
:10316000892BF9F2CE010E948314EC01ECCFE90126
:103170002897F701D583C483209789F2D801129646
:10318000ED91FC911397309791F0CE018E1B9F0B20
:1031900023E0959587952A95E1F785831396DC932F
:1031A000CE9312971D821C82DF82CE82BACFF801A5
:1031B000D183C083D383C283F5CFD70114962D91D9
:1031C0003C91159712968D919C9108962817390776
:1031D00070F681E0D70118968C93A3CF1F920F92BF
:1031E0000FB60F9211242F933F934F935F936F93DA
:1031F0007F938F939F93AF93BF93EF93FF938EE74C
:1032000092E00E94CF06FF91EF91BF91AF919F9105
:103210008F917F916F915F914F913F912F910F907F
:103220000FBE0F901F9018951F920F920FB60F921E
:1032300011242F938F939F93EF93FF93E0918E022E
:10324000F0918F028081E0919402F091950282FDCD
:103250001BC09081809197028F5F8F73209198029D
:10326000821741F0E0919702F0E0E258FD4F958F10
:1032700080939702FF91EF919F918F912F910F90E3
:103280000FBE0F901F9018958081F4CF1F920F9260
:103290000FB60F9211242F933F938F939F93AF9369
:1032A000BF9380916B0290916C02A0916D02B091DE
:1032B0006E0230916A0223E0230F2D3758F50196F4
:1032C000A11DB11D20936A0280936B0290936C0242
:1032D000A0936D02B0936E0280916F029091700284
:1032E000A0917102B09172020196A11DB11D80934F
:1032F0006F0290937002A0937102B0937202BF911B
:10330000AF919F918F913F912F910F900FBE0F9092
:103310001F90189526E8230F0296A11DB11DD2CF4C
:103320001F920F920FB60F9211242F933F934F933A
:103330005F936F937F938F939F93AF93BF93EF931D
:10334000FF938091B900887F803609F44AC0F0F578
:10335000883209F4A7C018F5803109F49BC0B8F48D
:10336000882309F4F9C0883009F494C0FF91EF91E3
:10337000BF91AF919F918F917F916F915F914F918D
:103380003F912F910F900FBE0F901F90189588318D
:1033900009F488C0803251F78093430214C080340E
:1033A00009F49DC040F48033B9F38833F9F6809373
:1033B000430285ECB0C0803509F485C0883509F436
:1033C00096C0883499F60E944018D0CF883909F405
:1033D0008CC038F5883729F050F4883611F08037E2
:1033E00029F683E0809344021092420257C0883845
:1033F00009F47BC0803919F0803809F0B7CF80918B
:103400004202803208F071C0E091420281E08E0FEA
:10341000809342028091BB00F0E0EE5DFD4F80831F
:103420003DC0803B39F0E0F4803A09F479C0883A35
:1034300009F09CCF84E08093440210922102109204
:103440002002E0917602F0917702099580912002A6
:1034500081110FC081E0809320021092000209C008
:10346000803C09F4A6CF883C09F4A3CF883B09F03F
:103470007DCFE091210281E08E0F80932102F0E068
:10348000E050FE4F80818093BB009091210280919B
:10349000200229C0809169028093BB0085EC809353
:1034A000BC0064CF9091680280916702981758F52C
:1034B000E091680281E08E0F80936802F0E0E95BA2
:1034C000FD4F8081E9CFE091680281E08E0F80930B
:1034D00068028091BB00F0E0E95BFD4F8083909132
:1034E0006802809167029817C8F285E8D8CFE0910A
:1034F000680281E08E0F809368028091BB00F0E04B
:10350000E95BFD4F80838091460281115CCF81E0B1
:103510008093450284EA8093BC001092440226CF37
:1035200085EC8093BC00109244028091420280326C
:1035300030F4E0914202F0E0EE5DFD4F10826091C8
:10354000420270E0E0917402F091750282E292E032
:103550000995109242020ACF1092430234CFEEE74F
:10356000F2E01382128248EE53E060E070E04483A0
:103570005583668377838AE091E09183808385EC2D
:1035800090E09587848784EC90E09787868780EC2D
:1035900090E0918B808B81EC90E0938B828B82EC1E
:1035A00090E0958B848B86EC90E0978B868B118EC8
:1035B000128E138E148EABE1B3E013961C921E9202
:1035C000129714964D935D936D937C9317978CE1AE
:1035D00091E011969C938E93E7E2F3E013821282BE
:1035E00020E830E03583248380E490E0978386836D
:1035F0003187208793878287168A158614861786D7
:10360000168681E0858B848B2FEF3FEF338B228BE7
:10361000318B208B878B108E128E118E8EE291E073
:1036200091838083148E138EB68FA58F10A2178E70
:103630008FEF84A385A386A387A380A780E89AE160
:10364000A6E0B0E085AB96ABA7ABB0AF80EA96E85A
:10365000A1E0B0E081AF92AFA3AFB4AF80E586AF99
:1036600017AE0895CF93DF93CDB7DEB7C459D10914
:103670000FB6F894DEBF0FBECDBF789484B58260DC
:1036800084BD84B5816084BD85B5826085BD85B506
:10369000816085BD80916E00816080936E00109284
:1036A00081008091810082608093810080918100FF
:1036B0008160809381008091800081608093800090
:1036C0008091B10084608093B1008091B0008160EE
:1036D0008093B00080917A00846080937A0080911A
:1036E0007A00826080937A0080917A008160809372
:1036F0007A0080917A00806880937A001092C100ED
:1037000060E080E10E94AA0760E08FE00E94AA07C3
:1037100060E08EE00E94AA078091460390914703E3
:10372000892B11F10E94911420912D0330912E03C9
:1037300080912B0390912C03213231050CF079C23A
:10374000B9016052710977FF02C06F5F7F4F7595B5
:1037500067958357910997FD019600E210E023E7F2
:1037600030E04EE957E078C220912D0330912E03CE
:10377000C901079697FD0796B3E095958795BA9589
:10378000E1F720912B0330912C03AC01429FC00143
:10379000439F900D529F900D11240E94F527909306
:1037A000470380934603892B09F0BCCF0E949114F4
:1037B000E0918E02F0918F0282E08083E0918A0294
:1037C000F0918B021082E0918C02F0918D028FECCF
:1037D000808310929602E0919202F091930286E02B
:1037E0008083E0919002F0919102808180618083DA
:1037F000E0919002F0919102808188608083E09155
:103800009002F0919102808180688083E091900223
:10381000F091910280818F7D80831E0153E7250EF8
:10382000311CCE0101963C0144244394512C80E18B
:103830000E94DB072FE030E0DC010E94E8272FEF39
:1038400033E040E050E00E94AE24CA01B9010E947A
:1038500091234B015C018FE00E94DB07BC01990FB3
:10386000880B990B0E9491239B01AC0160E070ECE6
:103870008FE794E40E94A22520E030E040E85FE377
:103880000E94352520E030E44CE156E40E94F0230C
:103890009B01AC0160E079ED88EF97E40E94A225DE
:1038A0002EE336E245E95FE30E949F26C157DF4FD2
:1038B000688379838A839B83CF58D0408EE00E94AF
:1038C000DB07BC01990F880B990B0E9491239B0188
:1038D000AC0160E070EC8FE794E40E94A22520E048
:1038E00030E040E85FE30E94352520E030E44CE121
:1038F00056E40E94F0230E941426072E000C880B29
:10390000990B0E9491230E9457266B017C012CE6A3
:103910003FEC48E554E30E94F023A70196010E9482
:10392000F023A70196010E94F023C557DF4F68835B
:1039300079838A839B83CB58D04026ED34E649E7D0
:1039400059E3C701B6010E94F0232BEC38E444E8A8
:103950005AE30E9436259B01AC01C557DF4F6881B1
:1039600079818A819B81CB58D0400E9436259B016A
:10397000AC0160E070E080E89FE30E94A22523E3B1
:1039800033E948E853E40E9435256B017C01B50119
:10399000A401C1010E940218B701A601CE018758F7
:1039A0009F4F0E940218C157DF4F488159816A8199
:1039B0007B81CF58D040CE0181589F4F0E94021882
:1039C000CB57DF4F19821882C558D040C957DF4FF7
:1039D00019821882C758D040C757DF4F1982188202
:1039E000C958D0404EE050E067E771E0CE018B57F8
:1039F0009F4F0E94E117BE0161587F4FCE018B5748
:103A00009F4F0E94CE178C014EE050E066E871E0B7
:103A10000E94A217811103C0C8010E945E17BE0157
:103A200067587F4FC8010E94CE178C0144E050E0D8
:103A300065E971E00E94A217811103C0C8010E94CC
:103A40005E17B101C8010E94CE171A8219821C822A
:103A50001B821E821D826816790669F0DC016D9159
:103A60007C9111976115710531F014964D915C911F
:103A7000C3010E94E1170E94911481E080933B03EF
:103A800080933C0350923A0340923903509238039A
:103A900040923703509234034092330350923603DE
:103AA000409235034D815E8169817A8187E293E09E
:103AB0000E9451068091440390914503892B09F49B
:103AC000AEC220915C0330915D0340915E03509142
:103AD0005F0360E074E284EF90E00E9404252051CF
:103AE00031094109510956954795379527952093F6
:103AF000B80065E08EE39CE00E946C1260912B039D
:103B0000615087E293E00E94211320912D033091B0
:103B10002E03C901079697FD079623E09595879593
:103B20002A95E1F740912B0350912C03849F90013B
:103B3000859F300D949F300D112400914603109104
:103B400047038091440390914503F801E20FF31F6E
:103B5000CD56DF4FF983E883C359D040009709F46D
:103B600021C32091480331E030937D0220937C02F1
:103B700010927B0210927A02DC01ED91FC9101908F
:103B8000F081E02D60E40995C557DF4F1983088364
:103B9000CB58D04001E010E0809144039091450360
:103BA000CD56DF4FE881F981C359D040C557DF4F6B
:103BB00028813981CB58D040E217F30709F446C277
:103BC00000321105D8F00E9432098091440390918F
:103BD00045032091480331E030937D0220937C021D
:103BE00010927B0210927A02DC01ED91FC9101901F
:103BF000F081E02D60E4099501E010E0809144033C
:103C000090914503C557DF4FE881F981CB58D040EB
:103C10006191C557DF4FF983E883CB58D040DC0171
:103C2000ED91FC910190F081E02D09950F5F1F4F00
:103C3000B3CFB9016054710977FF02C06F5F7F4F46
:103C4000759567958255910997FD019600E410E0FE
:103C500022E530E04EE759E0959587950E94000FE8
:103C600082E0809349038091440390914503892B1E
:103C700009F4DFC08CE3809348031092790210921C
:103C8000780210927B0210927A020E946E088FE4F2
:103C900096E0909377028093760280E596E0909389
:103CA00075028093740280914F0387FD1EC061E00E
:103CB0000E94AA0761E080914F030E945E0761E0C5
:103CC00070E080E090E00E94150860E080914F0372
:103CD0000E945E076AE070E080E090E00E941508B4
:103CE00061E080914F030E945E07809144039091B0
:103CF0004503892B09F45CC120915C0330915D037D
:103D000040915E0350915F0360E074E284EF90E0C5
:103D10000E940425205131094109510956954795C2
:103D2000379527952093B80064E088E697E00E94D5
:103D30006C1260912D03615087E293E00E94211381
:103D400064E084E697E00E946C128091490360E190
:103D5000813009F064E187E293E00E94211364E07E
:103D600080E697E00E946C128FE880936403809154
:103D70002B0390912C038038910509F032C180917A
:103D80002D0390912E038034910509F03AC1809162
:103D90004903813009F023C18FE98093640312E164
:103DA0006AED87E293E00E942113612F87E293E09E
:103DB0000E94211361E887E293E00E942113609141
:103DC000640387E293E00E94211369ED87E293E0A8
:103DD0000E9421138091490362E2813009F061EF72
:103DE00087E293E00E94211366E08AE597E00E9453
:103DF0006C128091440390914503892B09F405C10D
:103E000020916003309161034091620350916303FC
:103E100060E074E284EF90E00E94042520513109B3
:103E20004109510956954795379527952093B80034
:103E3000BDCC61E080914D030E94AA0761E08091B2
:103E40004E030E94AA0780914D03082E000C990B87
:103E5000FC01E657F84FE491F0E0EE0FFF1FE05849
:103E6000F84F259134913093550320935403FC016E
:103E7000E459F84FE491E0935A0380914E03082EE1
:103E8000000C990BFC01E657F84FE491F0E0EE0FBF
:103E9000FF1FE058F84FA591B491B0935703A0933A
:103EA0005603FC01E459F84FE491E0935B038C91D5
:103EB000E82BEC938091420390914303892B09F402
:103EC00034C01FB7F89480917302811127C0E4E9D0
:103ED000F7E08491E6E7F7E09491E82FF0E0EE0F49
:103EE000FF1FE05BF84FA591B491EC91E92321F419
:103EF00061E08AE00E945E0761E08AE00E94AA0712
:103F00008CB580618CBD8CB580648CBD61E08DE02A
:103F10000E94AA0761E08BE00E94AA0780917302C9
:103F20008F5F809373021FBFBECE61E080914B0311
:103F30000E94AA0761E080914C030E94AA07809129
:103F40004B03082E000C990BFC01E657F84FE49147
:103F5000F0E0EE0FFF1FE058F84F259134913093B9
:103F6000510320935003FC01E459F84FE491E0938E
:103F7000580380914C03082E000C990BFC01E65766
:103F8000F84FE491F0E0EE0FFF1FE058F84FA591D5
:103F9000B491B0935303A0935203FC01E459F84F3A
:103FA000E491E09359038C91E095E823EC937BCE68
:103FB0008091420390914303892B31F080916503F6
:103FC000909166030E948313E0915603F09157038A
:103FD000908180915B03809589238083A5CE8FECAF
:103FE000DCCE8036910569F480912D0390912E03EB
:103FF000409739F480914903813029F480E180931E
:10400000640312E0CDCE8FEAFACFE0915603F0912F
:104010005703808190915B03892B8083C7CB80916C
:10402000420390914303892B31F080916503909175
:1040300066030E948313E0915603F0915703908129
:1040400080915B0380958923808353CD0E94320940
:104050008091440390914503892B09F4EDC0209190
:10406000600330916103409162035091630360E00B
:1040700074E284EF90E00E94042520513109410947
:10408000510956954795379527952093B800C30158
:104090000E947017CE018B579F4F0E947017CE0160
:1040A00081589F4F0E947017CE0187589F4F0E94E2
:1040B0007017C1010E947017EFE0F0E0EC0FFD1FD8
:1040C000FA83E983FC83EB833E822D8238862F823C
:1040D00019861E86A3016AE971E0CE010A960E9444
:1040E0007818FC01892B41F0948190789C6094832E
:1040F00080829182A282B382A30163EA71E0CE0141
:104100000A960E947818FC01892B81F0948190789E
:104110009C609483C157DF4F288139814A815B813C
:10412000CF58D0402083318342835383A3016CEA6C
:1041300071E0CE010A960E947818FC01892B41F0AB
:10414000948190789C609483C082D182E282F382D1
:104150008EE792E0D10111969C938E9313961C9258
:104160001E921297B101CE010A960E94BB1442E042
:1041700050E067EB71E08EE792E00E94510660E14B
:1041800077E280E090E00E94150880E090E0892BC3
:1041900009F44DCB0E94BB06882309F445CB0E944D
:1041A000000042CBE0915403F0915503808190913F
:1041B0005A03892B8083CD56DF4FE881F981C3599B
:1041C000D0400E171F0709F443CFD8018D918D0100
:1041D0002091420330914303232B19F00E94651272
:1041E000EACF28E030E040E8E0915003F09151033D
:1041F00090915803542F5823D9F05081952B9083D8
:10420000E0915203F0915303908150915903952B03
:104210009083E0915203F0915303508190915903A0
:10422000909595239083469521503109E9F6C3CFA7
:10423000508190959523E3CFE0915603F091570379
:10424000808190915B03892B808321CF8EE291E066
:10425000909328038093270380914603909147030E
:10426000009711F00C9491280895EF920F931F93EB
:10427000CF93DF93E80134E047FD34E1042E000CD6
:10428000550B57FF03C0519541955109E32E022F5D
:10429000242FAE010E945321CE01DF91CF911F91B7
:1042A0000F91EF900895A9E0B0E0E9E5F1E20C94F8
:1042B000D3246A01F22EB02E102FFBE3AF2EA016EE
:1042C00008F41BE31F5F012F27E0AE014F5F5F4F34
:1042D0000E94B222BC018981982F9970913009F413
:1042E0003FC09BE2E1FC04C09E2D9170E0FC3AC00F
:1042F0005E2D5071E82FE87083FF46C084E0911175
:1043000001C083E0EF2DE81B8F1508F0E0E0D60137
:104310008E2F20E2552351F1992329F0D6019C9349
:10432000C60101966C0196012D5F3F4FE2FE24C04D
:104330008EE4D6018C9391E411969C93119712967A
:104340008C93D9018E2F90E281111BC0E20FF32FC5
:10435000F11D10828EEF9FEF2996ECE00C94EF2474
:104360009DE2C6CF90E2C4CF2D9381508111FCCF46
:10437000CE0ED11CE0E0D0CF8EE6D6018C9391E634
:10438000DBCF9D938150E0CF482F447082FF3DC02A
:1043900084E0911101C083E08F1510F4EF2DE81B2C
:1043A000D6018E2F20E2552309F1992329F0D60159
:1043B0009C93C60101966C0196012D5F3F4FE2FE72
:1043C0001BC089E4D6018C938EE411968C931197CF
:1043D00086E412968C93D9018E2F90E2882309F4FB
:1043E000B5CF9D938150FACF2D9381508111FCCF91
:1043F000CE0ED11CE0E0D9CF89E6D6018C938EE6B3
:1044000011968C93119786E6E4CF9B0177FF02C04B
:1044100030E020E0A1E0B0E0911102C0B0E0A0E007
:10442000F9013196AE0FBF1F8B2C912CBB2009F4E4
:1044300061C05401EFEFAE1ABE0AAA0DBB1DFA16F9
:104440001B0619F014F04F2D4A1B511188C0E3FCD4
:1044500059C07601A42FB0E2A1114FC0C40ED11CE7
:10446000992309F45BC040E0D6011196F6019083D0
:104470006D01552309F448C0012F060F9A81582F6A
:10448000507184FF03C0913309F4015010160CF0F1
:1044900047C0093008F008E0EEE2FE2E5B01A01AEA
:1044A000B10885019194819491082F3F320729F436
:1044B000D601FC92F60131966F016217730794F1F1
:1044C000021713077CF5DB01A21BB30BAA24A394EC
:1044D000B12CAC0EBD1EAA0DBB1D11968C912150A6
:1044E0003109D601119628153905F4F0F6018083BB
:1044F0006D01DBCFB12CA12CA0CFF701B1937F01CF
:10450000A150AACF9111B0CFD601942F50E302C091
:104510005D9391509111FCCFC40ED11C40E0ACCF03
:1045200001E0BACF80E3DBCF6217730731F4963333
:1045300088F4953311F4552369F0F6018083FD0169
:10454000842F90E2811108C0A40FB11D1C9290E04D
:1045500080E002CF81E3F1CF91938150F3CF9111AD
:1045600083CF8ACF283008F027E03327DA01990F6C
:10457000311D87FD916000966105710539F4326047
:104580002E5F3D9330E32A95E1F708959F3F30F089
:1045900080387105610509F03C5F3C5F3D939130C7
:1045A00008F08068911DDF93CF931F930F93FF92C4
:1045B000EF92192F987F9695E92F96959695E90F8A
:1045C000FF27EC5BFE4F99273327EE24FF24A7013A
:1045D000E70105900894079428F4360FE71EF81EAB
:1045E000491F511D660F771F881F991F0694A1F759
:1045F0000590079428F4E70EF81E491F561FC11DA9
:10460000770F881F991F661F0694A1F705900794DE
:1046100028F4F80E491F561FC71FD11D880F991F78
:10462000661F771F0694A1F70590079420F4490FA1
:10463000561FC71FD81F990F661F771F881F069424
:10464000A9F784911095177041F0D695C7955795A5
:104650004795F794E7941A95C1F7EAEEF0E068946D
:104660001590159135916591959105907FE273951F
:10467000E118F10A430B560BC90BD009C0F7E10C46
:10468000F11E431F561FC91FD01D7EF4703311F455
:104690008A95E6CFE894015030F0080F0AF400271D
:1046A000021708F4202F2395022F7A3328F079E39C
:1046B0007D932A95E9F710C07D932A9589F6069493
:1046C00097956795379517951794E118F10A430B5D
:1046D000560BC90BD00998F023957E9173957A33C8
:1046E00008F070E37C932013B8F77E9170617D939E
:1046F00030F0839571E37D9370E32A95E1F71124FF
:10470000EF90FF900F911F91CF91DF91992787FD37
:10471000909508950E94CC2308F481E00895E894D0
:1047200009C097FB3EF490958095709561957F4FF9
:104730008F4F9F4F9923A9F0F92F96E9BB279395A7
:10474000F695879577956795B795F111F8CFFAF4B7
:10475000BB0F11F460FF1BC06F5F7F4F8F4F9F4FE8
:1047600016C0882311F096E911C0772321F09EE846
:10477000872F762F05C0662371F096E8862F70E0AC
:1047800060E02AF09A95660F771F881FDAF7880F86
:104790009695879597F90895990F0008550FAA0BDC
:1047A000E0E8FEEF16161706E807F907C0F0121644
:1047B0001306E407F50798F0621B730B840B950B47
:1047C00039F40A2661F0232B242B252B21F408959C
:1047D0000A2609F4A140A6958FEF811D811D089539
:1047E0000E9403240C9474240E94662438F00E94D2
:1047F0006D2420F0952311F00C945D240C94632417
:1048000011240C94A8240E94852470F3959FC1F371
:10481000950F50E0551F629FF001729FBB27F00D6E
:10482000B11D639FAA27F00DB11DAA1F649F6627C3
:10483000B00DA11D661F829F2227B00DA11D621F12
:10484000739FB00DA11D621F839FA00D611D221FCC
:10485000749F3327A00D611D231F849F600D211DB0
:10486000822F762F6A2F11249F5750409AF0F1F033
:1048700088234AF0EE0FFF1FBB1F661F771F881F9C
:1048800091505040A9F79E3F510580F00C945D2453
:104890000C94A8245F3FE4F3983ED4F38695779573
:1048A0006795B795F795E7959F5FC1F7FE2B880F42
:1048B000911D9695879597F9089597F99F6780E8D8
:1048C00070E060E008959FEF80EC089500240A9462
:1048D0001616170618060906089500240A941216DB
:1048E0001306140605060895092E0394000C11F40E
:1048F000882352F0BB0F40F4BF2B11F460FF04C0BB
:104900006F5F7F4F8F4F9F4F089557FD9058440F13
:10491000551F59F05F3F71F04795880F97FB991F1E
:1049200061F09F3F79F087950895121613061406DB
:10493000551FF2CF4695F1DF08C016161706180668
:10494000991FF1CF86957105610508940895E89443
:10495000BB2766277727CB0197F90895052E97FB8C
:104960001EF400940E94C52457FD07D00E94042520
:1049700007FC03D04EF40C94C52450954095309517
:1049800021953F4F4F4F5F4F0895909580957095BB
:1049900061957F4F8F4F9F4F08952F923F924F9277
:1049A0005F926F927F928F929F92AF92BF92CF92BF
:1049B000DF92EF92FF920F931F93CF93DF93CDB7C8
:1049C000DEB7CA1BDB0B0FB6F894DEBF0FBECDBF40
:1049D00009942A88398848885F846E847D848C8411
:1049E0009B84AA84B984C884DF80EE80FD800C811A
:1049F0001B81AA81B981CE0FD11D0FB6F894DEBFFD
:104A00000FBECDBFED010895A1E21A2EAA1BBB1B5C
:104A1000FD010DC0AA1FBB1FEE1FFF1FA217B3078A
:104A2000E407F50720F0A21BB30BE40BF50B661FA0
:104A3000771F881F991F1A9469F760957095809564
:104A400090959B01AC01BD01CF010895A29FB001DB
:104A5000B39FC001A39F700D811D1124911DB29FB2
:104A6000700D811D1124911D08955058BB27AA2750
:104A70000E944D250C9474240E94662438F00E94F4
:104A80006D2420F039F49F3F19F426F40C9463242C
:104A90000EF4E095E7FB0C945D24E92F0E94852439
:104AA00058F3BA17620773078407950720F079F463
:104AB000A6F50C94A7240EF4E0950B2EBA2FA02D8A
:104AC0000B01B90190010C01CA01A0011124FF27BB
:104AD000591B99F0593F50F4503E68F11A16F040B6
:104AE000A22F232F342F4427585FF3CF46953795B5
:104AF0002795A795F0405395C9F77EF41F16BA0B7A
:104B0000620B730B840BBAF09150A1F0FF0FBB1F27
:104B1000661F771F881FC2F70EC0BA0F621F731F70
:104B2000841F48F4879577956795B795F7959E3FCD
:104B300008F0B0CF9395880F08F09927EE0F97955E
:104B4000879508950E94B6250C9474240E946D24C4
:104B500058F00E94662440F029F45F3F29F00C943D
:104B60005D2451110C94A8240C9463240E94852484
:104B700068F39923B1F3552391F3951B550BBB278C
:104B8000AA2762177307840738F09F5F5F4F220FD1
:104B9000331F441FAA1FA9F335D00E2E3AF0E0E8C8
:104BA00032D091505040E695001CCAF72BD0FE2F12
:104BB00029D0660F771F881FBB1F261737074807A6
:104BC000AB07B0E809F0BB0B802DBF01FF2793585E
:104BD0005F4F3AF09E3F510578F00C945D240C94A1
:104BE000A8245F3FE4F3983ED4F3869577956795C4
:104BF000B795F7959F5FC9F7880F911D9695879593
:104C000097F90895E1E0660F771F881FBB1F6217B1
:104C100073078407BA0720F0621B730B840BBA0B6F
:104C2000EE1F88F7E09508950E941B266894B11145
:104C30000C94A82408950E948D2488F09F5798F022
:104C4000B92F9927B751B0F0E1F0660F771F881F91
:104C5000991F1AF0BA95C9F714C0B13091F00E94AB
:104C6000A724B1E008950C94A724672F782F8827F4
:104C7000B85F39F0B93FCCF3869577956795B395D2
:104C8000D9F73EF490958095709561957F4F8F4F41
:104C90009F4F08950E94CC2308F48FEF089516F0DB
:104CA0000C9429270C94632468940C945D240E942E
:104CB0008D24A8F39923C1F3AEF3DF93CF931F9311
:104CC0000F93FF92C92FDD2788232AF02197660FC3
:104CD000771F881FDAF720E030E040E85FEB9FE3C2
:104CE000883920F0803E38F021968F770E94362553
:104CF000E8E6F0E004C00E943625E5E9F0E00E9415
:104D000037278B01BE01EC01FB2E6F57710975959A
:104D1000771F880B990B0E94912328E132E741E32A
:104D20005FE30E940324AF2D9801AE01FF900F9125
:104D30001F91CF91DF910E944D250C947424FA01AC
:104D4000EE0FFF1F309621053105A1F161157105A8
:104D500061F48038BFE39B0749F16894903881057E
:104D600061F08038BFEF9B0741F099234AF5FF3F80
:104D7000E1053105210519F1E8940894E795D90179
:104D8000AA2329F4AB2FBE2FF85FD0F310C0FF5F2A
:104D900070F4A695E0F7F73950F019F0FF3A38F4BF
:104DA0009F779F930DD00F9007FC9058089546F081
:104DB0000C94632460E070E080E89FE308954FE77F
:104DC0009F775F934F933F932F930E9457262F9186
:104DD0003F914F915F910E94F0230C94F72629F4A4
:104DE00016F00C945D240C94A7240C9463240E9468
:104DF0008D24A8F39638A0F707F80F92E8942BE3D8
:104E00003AEA48EB5FE70E9406240F920F920F9256
:104E10004DB75EB70F920E94A027E2ECF0E00E942F
:104E200037274F915F91EF91FF91E595EE1FFF1F9F
:104E300049F0FE57E0684427EE0F441FFA95E1F76A
:104E40004195550B0E946A270F9007FE0C945E2730
:104E500008959F3F31F0915020F48795779567959D
:104E6000B795880F911D9695879597F90895DF93CB
:104E7000CF931F930F93FF92EF92DF927B018C01F0
:104E8000689406C0DA2EEF010E940324FE01E89424
:104E9000A5912591359145915591A6F3EF010E9479
:104EA0004D25FE019701A801DA9469F7DF90EF9094
:104EB000FF900F911F91CF91DF9108959B01AC015D
:104EC00060E070E080E89FE30C94A2250C945D24E0
:104ED0000C9429270E948D24D8F39923C9F3940FA9
:104EE000511DA3F39150504094F059F0882332F0B3
:104EF000660F771F881F91505040C1F79E3F5105A4
:104F00002CF7880F911D9695879597F908955F3F27
:104F1000ACF0983E9CF0BB27869577956795B79542
:104F200008F4B1609395C1F7BB0F58F711F460FF17
:104F3000E8CF6F5F7F4F8F4F9F4FE3CF0C94A82434
:104F4000FA01DC01AA0FBB1F9B01AC01BF5728F47B
:104F5000222733274427507820C0B75190F4AB2F35
:104F60000024469537952795011CA395D2F3002080
:104F700071F0220F331F441FB395DAF30ED00C9457
:104F8000352561307105A0E88A07B94630F49B01E8
:104F9000AC016627772788279078309621F0208308
:104FA0003183428353830895AA1BBB1B51E107C081
:104FB000AA1FBB1FA617B70710F0A61BB70B881FA9
:104FC000991F5A95A9F780959095BC01CD01089538
:104FD0000E942625B7FF0895821B930B0895EE0FBC
:104FE000FF1F0590F491E02D09940F931F93CF9329
:104FF000DF938230910510F482E090E0E091690344
:10500000F0916A0330E020E0B0E0A0E0309799F43E
:105010002115310509F44AC0281B390B243031050C
:10502000D8F58A819B816115710589F1FB01938314
:105030008283FE0111C04081518102811381481792
:105040005907E0F04817590799F4109761F0129644
:105050000C93129713961C933296CF01DF91CF9148
:105060001F910F9108950093690310936A03F4CF81
:105070002115310551F04217530738F0A901DB0122
:105080009A01BD01DF01F801C1CFEF01F9CF909383
:105090006A0380936903CDCFFE01E20FF31F819372
:1050A00091932250310939832883D7CF2091670308
:1050B00030916803232B41F42091020130910301C8
:1050C0003093680320936703209100013091010120
:1050D0002115310541F42DB73EB74091040150919F
:1050E0000501241B350BE0916703F0916803E2177B
:1050F000F307A0F42E1B3F0B2817390778F0AC01FB
:105100004E5F5F4F2417350748F04E0F5F1F5093D7
:10511000680340936703819391939FCFF0E0E0E0B1
:105120009CCFCF93DF930097E9F0FC013297138275
:105130001282A0916903B0916A03ED0130E020E092
:105140001097A1F420813181820F931F2091670372
:10515000309168032817390709F061C0F09368039C
:10516000E0936703DF91CF910895EA01CE17DF073F
:10517000E8F54A815B819E0141155105B1F7E901CE
:10518000FB83EA8349915991C40FD51FEC17FD07A2
:1051900061F4808191810296840F951FE9019983C2
:1051A0008883828193819B838A83F0E0E0E012967A
:1051B0008D919C9113970097B9F52D913C91119782
:1051C000CD010296820F931F2091670330916803EF
:1051D0002817390739F6309751F510926A03109263
:1051E0006903B0936803A0936703BCCFD383C283E2
:1051F00040815181840F951FC817D90761F44E5F14
:105200005F4F88819981480F591F518340838A815C
:105210009B81938382832115310509F0B0CFF093F0
:105220006A03E09369039ECFFD01DC01C0CF1382C6
:105230001282D7CFB0E0A0E0E0E2F9E20C94CF24F4
:105240008C01009751F4CB010E94F5278C01C80115
:10525000CDB7DEB7E0E10C94EB24FC01E60FF71FBD
:105260009C0122503109E217F30708F49DC0D901CF
:10527000CD91DC911197C617D70798F0C530D105AD
:1052800030F3CE0104978617970708F3C61BD70B98
:105290002297C193D1936D937C93CF010E94912863
:1052A000D6CF5B01AC1ABD0A4C018C0E9D1EA0919D
:1052B0006903B0916A03512C412CF12CE12C109719
:1052C00031F580916703909168038815990509F07D
:1052D0005CC04616570608F058C0809100019091B6
:1052E0000101009741F48DB79EB7409104015091A0
:1052F0000501841B950BE817F90708F055C0F093DA
:105300006803E0936703F90171836083A0CF8D91F7
:105310009C91119712966C90129713967C9013970C
:10532000A815B90559F56C0142E0C40ED11CCA1488
:10533000DB0420F1AC014A195B09DA0112961597DA
:1053400080F06282738251834083D9016D937C9394
:10535000E114F10471F0D7011396FC93EE931297C8
:1053600076CF22968C0F9D1FF90191838083F301E4
:10537000EFCFF0936A03E093690369CF48165906AB
:1053800008F42C017D01D3019ACFCB010E94F527AF
:105390007C01009749F0AE01B8010E94DC29C801E8
:1053A0000E949128870153CF10E000E050CF81E0A8
:1053B00090E0F8940C94FC29FB01DC0102C0019000
:1053C0000D9241505040D8F70895DC0101C06D9313
:1053D00041505040E0F70895FB01DC018D910190B0
:1053E00080190110D9F3990B0895FB01DC0101909C
:1053F0000D920020E1F7089516E0C3E2D6E004C064
:10540000FE010E94EF272196C432D107C9F7F89414
:02541000FFCFCC
:1054120000006B03800000000000F10651067E06CA
:105422003E07AF068D06A106000000000309D6085C
:10543200DD134E06CF08BC08AD0800000000540C76
:105442005106DD13DC13B5114E06F90ED10EED0E29
:10545200E10E610F4E061A0A861325116E111A0EFD
:10546200FD0D850D260D2F2F22225C5C6208660C35
:105472006E0A720D7409006E756C6C00747275653B
:105482000066616C7365004C756D696E6F7369645B
:105492006164653A20000A54656D706572617475C5
:1054A20072613A20000A50483A00706853656E7380
:1054B2006F7200757653656E736F720074656D70EE
:0A54C20053656E736F72000D0A004F
:00000001FF
