:100000000C9400060C9428060C9428060C942806E0
:100010000C9428060C9428060C9428060C942806A8
:100020000C9428060C9428060C9428060C94280698
:100030000C9428060C9428060C9428060C94280688
:100040000C944E150C9428060C941C150C94F61464
:100050000C9428060C9428060C9428060C94280668
:100060000C9498150C94280608000000BE922449B0
:10007000123EABAAAA2ABECDCCCC4C3E00000080DA
:10008000BEABAAAAAA3E00000000BF000000803F4D
:100090000000000000084178D3BB4387D1133D190D
:1000A0000E3CC3BD4282AD2B3E68EC8276BED98F3A
:1000B000E1A93E4C80EFFFBE01C4FF7F3F0000007E
:1000C000000007634236B79BD8A71A39685618AEA6
:1000D000BAAB558C1D3CB7CC5763BD6DEDFD753E7D
:1000E000F6177231BF000000803F00407A10F35ACB
:1000F00000A0724E18090010A5D4E80000E8764868
:10010000170000E40B54020000CA9A3B000000E113
:10011000F505000080969800000040420F000000A6
:10012000A08601000000102700000000E803000086
:1001300000006400000000000A0000000000010050
:10014000000000002C76D888DC674F0823DFC1DF71
:10015000AE59E1B1B796E5E3E453C63AE651997674
:1001600096E8E6C28426EB898C9B62ED407C6FFCAE
:10017000EFBC9C9F40F2BAA56FA5F490055A2AF7F0
:100180005C936B6CF9676DC11BFCE0E40D47FEF5F9
:1001900020E6B500D0ED902E030094357705008061
:1001A000841E080000204E0A000000C80C333333C0
:1001B000330F986E12831141EF8D2114893BE65560
:1001C00016CFFEE6DB18D1844B381BF77C1D901D43
:1001D000A4BBE424203284725E228100C9F124ECA5
:1001E000A1E53D27000103070F1F3F7F0080C0E00E
:1001F000F0F8FCFE00000000003E5B4F5B3E3E6BF3
:100200004F6B3E1C3E7C3E1C183C7E3C181C577DB0
:10021000571C1C5E7F5E1C00183C1800FFE7C3E7FC
:10022000FF0018241800FFE7DBE7FF30483A060E0E
:100230002629792926407F050507407F05253F5A55
:100240003CE73C5A7F3E1C1C08081C1C3E7F1422C5
:100250007F22145F5F005F5F06097F017F00668970
:10026000956A606060606094A2FFA29408047E04B6
:100270000810207E201008082A1C08081C2A0808DC
:100280001E101010100C1E0C1E0C30383E3830069C
:100290000E3E0E06000000000000005F0000000798
:1002A000000700147F147F14242A7F2A12231308C6
:1002B000646236495620500008070300001C2241A2
:1002C000000041221C002A1C7F1C2A08083E080846
:1002D00000807030000808080808000060600020F6
:1002E000100804023E5149453E00427F40007249D9
:1002F0004949462141494D331814127F102745457D
:1003000045393C4A49493141211109073649494992
:1003100036464949291E0000140000004034000000
:100320000008142241141414141400412214080269
:10033000015909063E415D594E7C1211127C7F49DC
:100340004949363E414141227F4141413E7F494931
:1003500049417F090909013E414151737F0808085D
:100360007F00417F41002040413F017F081422412E
:100370007F404040407F021C027F7F0408107F3E88
:100380004141413E7F090909063E4151215E7F09F5
:10039000192946264949493203017F01033F40405C
:1003A000403F1F2040201F3F4038403F6314081447
:1003B0006303047804036159494D43007F4141417F
:1003C0000204081020004141417F04020102044060
:1003D00040404040000307080020545478407F28E4
:1003E0004444383844444428384444287F385454DA
:1003F000541800087E090218A4A49C787F080404FD
:100400007800447D40002040403D007F102844009B
:1004100000417F40007C047804787C08040478382C
:1004200044444438FC1824241818242418FC7C085C
:10043000040408485454542404043F44243C4040D9
:10044000207C1C2040201C3C4030403C442810288C
:10045000444C9090907C4464544C440008364100D5
:100460000000770000004136080002010204023C4F
:100470002623263C1EA1A161123A4040207A38541E
:100480005455592155557941225454784221555497
:10049000784020545579400C1E52721239555555EA
:1004A00059395454545939555454580000457C41D5
:1004B0000002457D420001457C407D1211127DF015
:1004C000282528F07C545545002054547C547C0A3F
:1004D000097F4932494949323A4444443A324A4808
:1004E00048303A4141217A3A42402078009DA0A00C
:1004F0007D3D4242423D3D4040403D3C24FF24245E
:10050000487E4943662B2FFC2F2BFF0929F620C07C
:10051000887E090320545479410000447D413048CD
:10052000484A32384040227A007A0A0A727D0D1910
:10053000317D2629292F28262929292630484D4072
:1005400020380808080808080808382F10C8ACBA6E
:100550002F102834FA00007B000008142A142222ED
:10056000142A14085500550055AA55AA55AAFF5536
:10057000FF55FF000000FF00101010FF00141414BE
:10058000FF001010FF00FF1010F010F0141414FC06
:10059000001414F700FF0000FF00FF1414F404FC23
:1005A000141417101F10101F101F1414141F001004
:1005B0001010F0000000001F101010101F1010107D
:1005C00010F010000000FF1010101010101010108C
:1005D000FF10000000FF140000FF00FF00001F10CC
:1005E000170000FC04F414141710171414F404F486
:1005F0000000FF00F714141414141414F700F71477
:100600001414171410101F101F141414F4141010C5
:10061000F010F000001F101F0000001F1400000069
:10062000FC140000F010F01010FF10FF141414FF61
:10063000141010101F00000000F010FFFFFFFFFF5C
:10064000F0F0F0F0F0FFFFFF0000000000FFFF0FF0
:100650000F0F0F0F3844443844FC4A4A4A347E0294
:10066000020606027E027E02635549416338444415
:100670003C04407E201E2006027E020299A5E7A5CA
:10068000991C2A492A1C4C7201724C304A4D4D303B
:100690003048784830BC625A463D3E494949007E60
:1006A0000101017E2A2A2A2A2A44445F44444051F7
:1006B0004A444040444A51400000FF0103E080FFAB
:1006C000000008086B6B083612362436060F090F37
:1006D00006000018180000001010003040FF010153
:1006E000001F01011E00191D1712003C3C3C3C007C
:1006F00000000000000000080002010000030407E1
:10070000000000000000000000000000240027009E
:100710002A00DB40A4A62EAF2000A1C8D300408D44
:10072000AED580A801020408102040800102040810
:1007300010200102040810200000000025002800FD
:100740002B00040404040404040402020202020252
:100750000303030303030000600000000000000027
:1007600000000000000000E00000000000000000A9
:10077000000000000001E000000000000000000098
:100780000000000001F00000000000000000000078
:1007900000000003F0000000000000000000000066
:1007A000000007F000000000000000000000000052
:1007B0000007F8000000000000000000000000003A
:1007C0000FF800000003C0007E000001E0007F0F72
:1007D000F800000003C000FE000001E000FFEFF899
:1007E00000000003C000FE000001E000FFFFF80071
:1007F000000003C000F00000000F007FFE7FC0007B
:100800000003C000F00000000F003FFE7FF83FF142
:10081000FBCFFCFEF3BC3DEFE01FFE7FFF7FFBFF45
:10082000DFFEFEFFBC3DEFE01FC6FFFF7FFBFFDFEB
:10083000FEFEFFBC3DEFE00FE3C7FE787BC3DE1E8C
:10084000F0FFBC3DEF0007FF87FC787BC3DE1EF0A6
:10085000F83C3DEF0001FFFFF0007BC3C01EF0F04D
:100860003C3DEF0001F37FE03FFBC3CFFEF0F03CE7
:100870003DEF0003E33F807FFBC3DFFEF0F03C3D34
:10088000EF0007E73C00787BC3DE1EF0F03C3DEF55
:100890000007FFBE00787BC3DE1EF0F03C3DEF009A
:1008A00007FFFE00787BC3DE1EF0F03C3DEF000F3B
:1008B000FFFE007FFBFFDFFEF0F03FFDEFE00FFFEC
:1008C000FF007FFBFFDFFEF0F03FFDEFE00FF9FFE1
:1008D000003E79F9CF9EF0F01F3DE7E01FF1FF00E9
:1008E00000000000000000000000001F80FF007FEB
:1008F000FFFFFFFFFFFFFFFFFFE01C007F007FFF08
:10090000FFFFFEB46D888D18E000001F007FFFFF21
:10091000FFFE95AD7DB577E000000F007FFFFFFF84
:10092000FEA5AD9D8D19E0000006007FFFFFFFFED4
:10093000B5ADEDB57EE000000000000180000000D4
:100940000000000000000380000000000000000024
:100950000007C000000000000000000007C0000009
:10096000000000000000000FC000000000000000B8
:1009700000001FE00000000000000000001FE00079
:1009800000000000000000003FE000000000000048
:100990000000003FF00000000000000000007FF0B9
:1009A000000000000000001FF87FF00000000000C1
:1009B00000003FFE7FF0000000000000003FFF7FCE
:1009C000F0000000000000001FFFFBE0000000003E
:1009D0000000000FFFF9FFC00000000000000FFF43
:1009E000F9FFF800000000000007FFF1FFFF000022
:1009F0000000000003FC73FFFF8000000000000106
:100A0000FE3FFFFF80000000000000FF1E0FFF0000
:100A10000000000000007FFE1FFC0000000000003E
:100A2000003FFFFFF8000000000000000FDFFFE0C4
:100A3000000000000000001F19FFC00000000000BF
:100A400000003F3CFF00000000000000007E7CF83A
:100A500000000000000000007FFE7C00000000009D
:100A6000000000FFFFFC0000000000000000FFFF8E
:100A7000FE0000000000000000FFFFFE000000007C
:100A800000000001FFEFFE0000000000000001FF79
:100A9000CFFE0000000000000003FF07FE00000082
:100AA0000000000003FC07FE00000000000000033F
:100AB000F003FE00000000000000018000FE0000C6
:100AC00000000000000000007E00000000000000A8
:100AD0000000003E000000000000000000000C00CC
:100AE0000000000000078000FC000003C0000000C0
:100AF000078001FC000003C0000000078001FC002B
:100B00000003C0000000078001E00000001E00009C
:100B100000078001E00000001E007FE3F79FF9FD61
:100B2000E7787BDFC0FFF7FFBFFDFDFF787BDFC00D
:100B3000FFF7FFBFFDFDFF787BDFC0F0F787BC3D0F
:100B4000E1FF787BDE00F0F787BC3DE1F0787BDEEB
:100B50000000F787803DE1E0787BDE007FF7879F2C
:100B6000FDE1E0787BDE00FFF787BFFDE1E0787B09
:100B7000DE00F0F787BC3DE1E0787BDE00F0F78730
:100B8000BC3DE1E0787BDE00F0F787BC3DE1E0783A
:100B90007BDE00FFF7FFBFFDE1E07FFBDFC0FFF77B
:100BA000FFBFFDE1E07FFBDFC07CF3F39F3DE1E0B1
:100BB0003E7BCFC00000000000000000000000FFEE
:100BC000FFFFFFFFFFFFFFFFFFC0FFFFFFFFFD680D
:100BD000DB111A31C0FFFFFFFFFD2B5AFB6AEFC08C
:100BE000FFFFFFFFFD4B5B3B1A33C0FFFFFFFFFD25
:100BF0006B5BDB6AFDC02200FF210000B716961C6C
:100C000011241FBECFEFD8E0DEBFCDBF23E0AAE79F
:100C1000B1E001C01D92A733B207E1F711E0A0E0F7
:100C2000B1E0E2EFF9E402C005900D92AA37B107F6
:100C3000D9F715E0CFEFD5E004C02197FE010E945F
:100C4000E822CE3FD107C9F70E943A170C94EC2452
:100C50000C940000089508950895AF92BF92CF922A
:100C6000DF92EF92FF920F931F93CF93DF936C016C
:100C70007B018B01040F151FEB015E01AE18BF084D
:100C8000C017D10759F06991D601ED91FC910190FF
:100C9000F081E02DC6010995892B79F7C501DF9117
:100CA000CF911F910F91FF90EF90DF90CF90BF9069
:100CB000AF900895FC01538D448D252F30E0842F93
:100CC00090E0821B930B541710F0CF960895019774
:100CD0000895FC01918D828D981761F0A28DAE0F61
:100CE000BF2FB11D5D968C91928D9F5F9F73928FE8
:100CF00090E008958FEF9FEF0895FC01918D828D14
:100D0000981731F0828DE80FF11D858D90E00895E0
:100D10008FEF9FEF0895FC01918D228D892F90E038
:100D2000805C9F4F821B91098F73992708958AE4F5
:100D300092E00E948B0621E0892B09F420E0822FAB
:100D4000089580E090E0892B29F00E949706811198
:100D50000C9400000895FC01A48DA80FB92FB11DBB
:100D6000A35ABF4F2C91848D90E001968F739927E1
:100D7000848FA689B7892C93A089B1898C918370BF
:100D800080648C93938D848D981306C00288F389B8
:100D9000E02D80818F7D80830895EF92FF920F93E5
:100DA0001F93CF93DF93EC0181E0888F9B8D8C8D17
:100DB00098131AC0E889F989808185FF15C09FB70B
:100DC000F894EE89FF896083E889F98980818370CE
:100DD000806480839FBF81E090E0DF91CF911F917D
:100DE0000F91FF90EF900895F62E0B8D10E00F5F9E
:100DF0001F4F0F731127E02E8C8D8E110CC00FB674
:100E000007FCFACFE889F989808185FFF5CFCE010B
:100E10000E94AB06F1CFEB8DEC0FFD2FF11DE35AD5
:100E2000FF4FF0829FB7F8940B8FEA89FB8980818E
:100E30008062CFCFCF93DF93EC01888D8823B9F008
:100E4000AA89BB89E889F9898C9185FD03C08081D5
:100E500086FD0DC00FB607FCF7CF8C9185FFF2CF52
:100E6000808185FFEDCFCE010E94AB06E9CFDF91F7
:100E7000CF91089590E0FC01EC50F94F2491FC01D2
:100E8000EC5DF84F3491FC01EE5BF84FE491EE23FA
:100E9000C9F0222339F0233001F1A8F4213019F1EF
:100EA000223029F1F0E0EE0FFF1FE85CF84FA5912A
:100EB000B4918FB7F894EC91611126C030953E2320
:100EC0003C938FBF08952730A9F02830C9F0243013
:100ED00049F7809180008F7D03C0809180008F77DB
:100EE00080938000DFCF84B58F7784BDDBCF84B55E
:100EF0008F7DFBCF8091B0008F778093B000D2CFF1
:100F00008091B0008F7DF9CF3E2BDACFCF93DF9366
:100F100090E0FC01EC5DF84F24918E5B984FFC0152
:100F200084918823D1F090E0880F991FFC01E85F3D
:100F3000F84FA591B491FC01E85CF84FC591D491AC
:100F400061110EC09FB7F8948C91E22FE0958E232B
:100F50008C932881E223E8839FBFDF91CF9108958E
:100F60008FB7F894EC91E22BEC938FBFF6CF8E30D5
:100F700008F08E508770806480937C0080917A00A6
:100F8000806480937A0080917A0086FDFCCF809106
:100F900078009091790008953FB7F89480912F02DE
:100FA00090913002A0913102B091320226B5A89BF7
:100FB00005C02F3F19F00196A11DB11D3FBFBA2FEB
:100FC000A92F982F8827BC01CD01620F711D811DAB
:100FD000911D42E0660F771F881F991F4A95D1F730
:100FE00008958F929F92AF92BF92CF92DF92EF922D
:100FF000FF924B015C010E94CC076B017C010E94B7
:10100000CC076C197D098E099F09683E73408105E4
:101010009105A8F321E0821A9108A108B10888EE91
:10102000C80E83E0D81EE11CF11C81149104A104B8
:10103000B10429F7FF90EF90DF90CF90BF90AF9071
:101040009F908F9008952091E001260F3327331F42
:1010500021323105ECF420910402FC0190E080E0A3
:10106000243069F082E00895A091E0012191AC0163
:1010700040545E4FA40FB52FB11D2C9301968617D7
:1010800098F38091E001680F6093E00180E008959B
:1010900081E008951092040281E08093060210928C
:1010A000050261E082E10E943A0761E083E10E946B
:1010B0003A07E9EBF0E080818E7F808380818D7F2D
:1010C000808388E48093B80085E48093BC00089511
:1010D000CF93DF9391E09093BF018823B9F0C09143
:1010E000B800D091BA008091BC008A7B8093BC008C
:1010F00060E082E10E943A0760E083E10E943A07E3
:101100000E944A08D093BA00C093B800DF91CF91F3
:101110000895E091390280913802E81730F4F0E048
:10112000E656FE4F808190E008958FEF9FEF08957F
:1011300090913902809138022FEF3FEF981748F4D1
:10114000E92FF0E0E656FE4F208130E09F5F90935C
:101150003902C90108958091380290913902891BA2
:10116000990B0895CF92DF92EF92FF920F931F9306
:10117000CF93DF937C01CB018A0120914902222386
:1011800089F0EB016B01C40ED51ECC15DD0569F0AD
:101190006991D701ED91FC910190F081E02DC7019B
:1011A0000995F3CF642F0E942308C801DF91CF91E6
:1011B0001F910F91FF90EF90DF90CF900895CF9304
:1011C000DF931F92CDB7DEB76983209149022223B6
:1011D000F9F020914602203258F021E030E0FC0185
:1011E0003383228390E080E00F90DF91CF910895C8
:1011F00080914702E82FF0E0E658FE4F99819083F6
:101200008F5F809347028093460281E090E0ECCFAD
:1012100061E0CE0101960E942308F7CFCF92DF92C2
:10122000EF92FF920F931F93CF93DF93D0914602DB
:1012300081E0D13208F09CC0C09148020E94CC07E6
:101240006B017C018091040281116CC082E080936B
:10125000040281E0809306028FEF809303021092D4
:101260002802D0932702AAE7B1E0E7E0F2E080E0AD
:10127000D8138DC01092290280912902CC0FC82B5F
:10128000C093290280910502813009F084C0109238
:1012900005020E94CC076B017C018091290280939A
:1012A000BB008091BB019091BC01A091BD01B091A8
:1012B000BE01892B8A2B8B2BA1F00E94CC070091B9
:1012C000BB011091BC012091BD013091BE016C1990
:1012D0007D098E099F09061717072807390708F4A3
:1012E00042C08091BC0083FDD8CF85EC8093BC00C8
:1012F0000E94CC076B017C0180910402823009F4CA
:101300004CC0809103028F3F09F469C080910302B1
:10131000803209F466C080910302803309F463C00F
:1013200084E026C08091BB019091BC01A091BD01D9
:10133000B091BE01892B8A2B8B2B09F483CF0E949D
:10134000CC070091BB011091BC012091BD013091EF
:10135000BE016C197D098E099F090617170728071A
:10136000390708F06FCF8091BA010E94680885E0C4
:10137000109247021092460210924902DF91CF91DB
:101380001F910F91FF90EF90DF90CF9008959D9166
:1013900091938F5F6DCF85EEA9CF8091BB01909126
:1013A000BC01A091BD01B091BE01892B8A2B8B2B72
:1013B00009F4A2CF0E94CC070091BB011091BC019F
:1013C0002091BD013091BE016C197D098E099F09E4
:1013D000061717072807390708F08ECFC4CF80E01B
:1013E000C7CF82E0C5CF83E0C3CF0895FC0163700F
:1013F000668B8481958126813781613039F0633035
:1014000029F0918780873387228708953187208745
:101410009387828708952F923F924F925F926F92A7
:101420007F928F929F92AF92BF92CF92DF92EF9274
:10143000FF920F931F93CF93DF93CDB7DEB76A97D9
:101440000FB6F894DEBF0FBECDBF9A8F898F7A8317
:1014500069834A01D22E18870F833701BC2CDC0127
:1014600059962D913C915A972115310509F015C1D6
:1014700018968D919C911997681779070CF0D7C130
:101480001A968D919C91481759070CF0D0C14C2C9D
:10149000512CB6E0CB9E600D711D11247C876B87AB
:1014A000161617060CF0C3C1EA2DF0E0FA87E9879B
:1014B00093E0EE0FFF1F9A95E1F7F88BEF87CF01CE
:1014C000840F951F181619060CF0B1C1A98DBA8D9D
:1014D00058968C91811104C0BFEABD1508F4D394CD
:1014E000A98DBA8DED91FC9111970284F385E02DC1
:1014F000CD010995B5E0DB9EC0011124E981FA8197
:10150000FC83EB83312C212C9C012C503E4F388FD7
:101510002F8B4A2D50E05E8B4D8BEF89F88DE20DBD
:10152000F31D44919E828D82D12CC12C69817A81D8
:10153000620D731D7A8B698B842F90E09C8B8B8B53
:10154000E98DFA8DA081B18140FF82C0F1E0BF1228
:101550006FC0AF126DC01C96ED91FC912F81388544
:10156000A4014C0D5D1D69897A89898D9A8D099533
:10157000EB89FC89F595E7954E2F5FEFC51AD50AE3
:101580006D817E818D899E89680F791F7E836D8331
:1015900098E0C916D10481F6AFEF2A1A3A0AEB8116
:1015A000FC81E40DF51DFC83EB83F5E02F1631047F
:1015B00009F0B3CF2F81388526153705B9F0A98DED
:1015C000BA8DED91FC91B1E0BB1257C0AB1255C082
:1015D00069817A816B5F7F4F0088F189E02D8301FB
:1015E00028E030E0A401898D9A8D0995A98DBA8DE6
:1015F000ED91FC9111970688F789E02DCD016A964F
:101600000FB6F894DEBF0FBECDBFDF91CF911F9113
:101610000F91FF90EF90DF90CF90BF90AF909F9091
:101620008F907F906F905F904F903F902F90099494
:101630001E96ED91FC91EF80F88409851A85920140
:101640004D815E816B817C81898D9A8D099590CFCA
:101650002F8138852615370509F48ACF31E0B3127A
:1016600007C0A31205C01C96ED91FC91930178CFA1
:101670001E96ED91FC917301E0CF6B857C8564191A
:1016800075090684F785E02D73010F85188992018D
:10169000A401898D9A8D0995A9CFF9013496949169
:1016A000329745915491D91AB7E0DB9E400D511DF8
:1016B0001124F901259134913C8B2B8BFA01259053
:1016C0003490FA013296749031963491398B329677
:1016D00064903196449041E04C1518F04A1508F09A
:1016E0007FC0662D062C000C770B7C836B83842DCA
:1016F000042C000C990B9E838D83A98DBA8DED91DE
:10170000FC9111970284F385E02DCD010995512CB0
:10171000D12CC12CEA2DF0E0FA87E9872B2D30E09F
:101720003C872B87A401440D511D47FC5A95588FC7
:101730004F8B69817A81660D711D67FC7A957E8772
:101740006D877989C71608F051CF2C2D30E04D8177
:101750005E81420F531FA985BA854A9FC0014B9FE6
:10176000900D5A9F900D1124FC01E80DF91DF88B86
:10177000EF87852D612C4F89588D420F531F5E8B4B
:101780004D8B671408F050C044244394480E877072
:1017900041F4C1010196EB89FC89E20DF31DD4905F
:1017A0001C01D7FE19C0A98DBA8DED91FC91662D53
:1017B00070E0B1E0BB1219C0AB1217C02D853E8599
:1017C000620F731F0484F585E02D2F8138854D89C4
:1017D0005E89898D9A8D0995DD0C6394842DD1CF16
:1017E0001E821D821C821B8288CF4B815C81640F0C
:1017F000751FAB85BC856A9FC0016B9F900D7A9F5A
:10180000900D112469817A81680F791F0684F7850C
:10181000E02DEF80F88409851A859D014F85588950
:10182000898D9A8D0995D8CF570CC3948ACF6A9623
:101830000FB6F894DEBF0FBECDBFDF91CF911F91E1
:101840000F91FF90EF90DF90CF90BF90AF909F905F
:101850008F907F906F905F904F903F902F90089562
:101860008F929F92AF92CF92EF92FF920F931F931E
:10187000CF93DF93EC01262F898D9A8D009709F085
:1018800051C06A30D1F41D861C868D8948E0849F42
:10189000900111248E859F85820F931F9F878E87CD
:1018A00081E090E0DF91CF911F910F91FF90EF9039
:1018B000CF90AF909F908F9008956D3089F3CC8832
:1018C000AD888F898823C1F08C859D8536E0C39EC5
:1018D000800D911D1124488559854817590764F4D6
:1018E0004E855F851D861C8638E0A39EC0011124AD
:1018F000840F951F9F878E87EA88FB88088919893E
:101900004E855F856C857D85CE010E940B0A2C89F2
:101910008C859D8546E0249F800D911D11249D8717
:101920008C87BECF6A3069F41D861C86FC01389610
:10193000E4912D898E859F85E29F800D911D112454
:10194000ADCF6D3009F4ACCFFC0134963491631700
:1019500008F4A6CF3296E491E61708F4A1CFFC0173
:10196000329685909490462F431B342F47E0349F46
:10197000800C911C1124F401329634913196E4913B
:101980003323A9F1EE2399F1CC88F4013596E49143
:10199000AD884F89442301F10E2E000CFF0BE30F9D
:1019A000F11DCE9EA001CF9E500D11246C857D852A
:1019B000460F571F68857985641775076CF44E8547
:1019C0005F851D861C86FC013896E491AE9E400D15
:1019D000511D11245F874E87EA88FB880889198981
:1019E0004E855F856C857D85CE010E940B0AF401D2
:1019F0003496E4912C898C859D85E29F800D911D04
:101A000011248DCF6F927F928F929F92AF92BF924F
:101A1000CF92DF92EF92FF920F931F93CF93DF93BA
:101A2000EC016B015A0139014801E881F981028416
:101A3000F385E02D0995E881F9810288F389E02D8D
:101A400087019301A501B601CE010995A501480DB5
:101A5000591D41505109E881F9810288F389E02D2F
:101A60009301B601CE010995E881F9810088F189D9
:101A7000E02D9401A501B601CE010995C60CD71C35
:101A8000B60161507109E881F9810088F189E02D82
:101A90009401A501CE010995E881F9810688F789AD
:101AA000E02DCE01DF91CF911F910F91FF90EF902C
:101AB000DF90CF90BF90AF909F908F907F906F906E
:101AC00009946F927F928F929F92AF92BF92CF9222
:101AD000DF92EF92FF920F931F93CF93DF935C01FE
:101AE000EB016A01490138018701DC01ED91FC91AC
:101AF0006217730719F5641675062CF0962D872D5D
:101B00003A01C92ED82E9601261937092F5F3F4F6B
:101B1000048CF58DE02DA301BE01C5010995DF916F
:101B2000CF911F910F91FF90EF90DF90CF90BF90DA
:101B3000AF909F908F907F906F90089546155705B6
:101B400091F42617370724F0892D4B01C22FD82F87
:101B50009E01281939092F5F3F4F068CF78DE02D24
:101B6000A601B401DACF0284F385E02D0995D501F1
:101B7000ED91FC910488F589E02D83019401A60183
:101B8000BE01C5010995D501ED91FC910688F78943
:101B9000E02DC501DF91CF911F910F91FF90EF9044
:101BA000DF90CF90BF90AF909F908F907F906F907D
:101BB0000994EF92FF920F931F93DC011A960D91F7
:101BC0001C911B9718962D913C911997ED91FC91C2
:101BD00000A0F1A1E02D7B0150E040E070E060E06A
:101BE00009951F910F91FF90EF9008954F925F928A
:101BF0006F927F928F929F92AF92BF92CF92DF921D
:101C0000EF92FF920F931F93CF93DF936C012B0101
:101C10005A0139014801DC01ED91FC910284F38500
:101C2000E02D0995E201640C751CD601ED91FC9143
:101C3000C615D7055CF40088F189E02D8701940171
:101C4000A501BE01C60109952196EFCF0688F78947
:101C5000E02DC601DF91CF911F910F91FF90EF9082
:101C6000DF90CF90BF90AF909F908F907F906F90BC
:101C70005F904F9009948F929F92AF92BF92CF92B4
:101C8000DF92EF92FF920F931F93CF93DF93EC01BC
:101C90005B014A016901E881F9810284F385E02D45
:101CA000099595012C0D3D1D21503109E881F981DF
:101CB0000488F589E02D78018401A401B501CE01E5
:101CC0000995E881F9810688F789E02DCE01DF9139
:101CD000CF911F910F91FF90EF90DF90CF90BF9029
:101CE000AF909F908F9009948F929F92AF92BF92E6
:101CF000CF92DF92EF92FF920F931F93CF93DF93D8
:101D0000EC015B014A0169017801E881F9810284F3
:101D1000F385E02D0995C80CD91C860101501109E5
:101D2000E881F9810488F589E02D9501A401B501C8
:101D3000CE010995E881F9810688F789E02DCE0169
:101D4000DF91CF911F910F91FF90EF90DF90CF9097
:101D5000BF90AF909F908F900994EF92FF920F9356
:101D60001F93DC01ED91FC9100A0F1A1E02D0995FC
:101D70001F910F91FF90EF9008950F931F93DC0137
:101D8000ED91FC91068CF78DE02D09951F910F9137
:101D900008950F931F93DC01ED91FC91048CF58D58
:101DA000E02D09951F910F910895DC01ED91FC91B3
:101DB0000084F185E02D09943F924F925F926F92DB
:101DC0007F928F929F92AF92BF92CF92DF92EF92CB
:101DD000FF920F931F93CF93DF935C017B014A0126
:101DE0006901390187E0680E711C93E0759467946E
:101DF0009A95E1F72B01400E511E10E000E0312CC6
:101E0000D0E0C0E0CE0187709927330C892B59F4BC
:101E1000FE0183E0F595E7958A95E1F7E00FF11F64
:101E2000E80DF91D349037FE0AC021E030E0A7012B
:101E3000B5016C0F7D1F83EF92E00E94D50E2196B5
:101E4000CC16DD06F9F68FEFE81AF80A060D171D15
:101E5000E414F504A9F6DF91CF911F910F91FF9043
:101E6000EF90DF90CF90BF90AF909F908F907F903A
:101E70006F905F904F903F9008952F923F924F92B6
:101E80005F926F927F928F929F92AF92BF92CF920A
:101E9000DF92EF92FF920F931F93CF93DF9300D0C7
:101EA00000D000D0CDB7DEB73C016A013E832D8360
:101EB000FC82EB825801A41AB50AB7FE03C0B194A4
:101EC000A194B1088D809E80861A970A97FE03C060
:101ED0009194819491088A149B045CF0902F812F37
:101EE0000D811E819D838E839C2D8D2D6B01692F0D
:101EF000782F0C151D055CF09D818E817E836D838E
:101F0000692F782F902F812F8601C92ED82E160188
:101F1000201A310A2B012D813E81421A530A57FEA5
:101F200003C0519441945108710137FE03C03FEF43
:101F3000E31AF30AF594E7948D819E81861797073B
:101F40005CF5A1E0B0E0BA83A983C016D1064CF1DC
:101F5000D301ED91FC910484F585E02D2B813C812A
:101F6000A8016D817E818A149B041CF04D815E81E5
:101F7000B801C3010995E418F508F7FE0AC02D81E0
:101F80003E8189819A81280F391F3E832D83E20C7F
:101F9000F31C0F5F1F4FD9CF2FEF3FEF3A832983F9
:101FA000D4CF26960FB6F894DEBF0FBECDBFDF911B
:101FB000CF911F910F91FF90EF90DF90CF90BF9046
:101FC000AF909F908F907F906F905F904F903F90D9
:101FD0002F900895EF92FF920F931F93CF93DF936B
:101FE000EC01EC80FD806E157F050CF070C057FF92
:101FF00004C0240F351F50E040E08E819F81FA011C
:10200000E20FF31F8E179F071CF49C01241B350B56
:10201000121613060CF05BC0922F842F86958695BE
:1020200086958E9DD0018F9DB00D11246A0F7B1F68
:10203000AF8DB8A1A60FB71F477049F188E0841B88
:10204000482F682F70E0FB01E451FE4FE491281700
:1020500008F063C0621B71092FEF30E002C03595B4
:1020600027956A95E2F7E2230130110539F0B0F1C6
:102070000230110561F58C91E82702C08C91E82BA4
:10208000EC93941720F12C813D81A20FB31FE92F0F
:10209000E41BE83078F00230110521F58E2F9C9179
:1020A00090959C932C813D81A20FB31F885088305E
:1020B000B0F7E770EE2359F0F0E0EC51FE4FE491F9
:1020C00001301105F9F010F10230110519F1DF911D
:1020D000CF911F910F91FF90EF900895E0958C9113
:1020E000E823CECF81E00115110509F480E0819548
:1020F0009E2F8C932C813D81A20FB31F9850983056
:10210000C0F7D7CF8C91E82BEC93E1CFE0958C9181
:10211000E823FACF8C91E827F7CF0130110509F4B5
:10212000ADCFE0F20230110509F4A5CFAE0DBF1D11
:10213000AECF0F931F93CF93DF9377FF04C0260F8B
:10214000371F70E060E0DC011496CD91DC91FB015B
:10215000E20FF31FCE17DF071CF49E01261B370B7F
:10216000121613064CF5FA0157FD3796A3E0F595C4
:10217000E795AA95E1F7EC9FD001ED9FB00DFC9F8C
:10218000B00D11246A0F7B1FDC015F96ED91FC916D
:10219000E60FF71F4770552781E090E001C0880FD8
:1021A0004A95EAF7482F0130110559F0A8F02E0F93
:1021B0003F1F02301105E1F0DF91CF911F910F9188
:1021C00008952E0F3F1FE217F307B1F38191DF014E
:1021D0001197842B8C93F7CF80952E0F3F1FE2171A
:1021E000F30751F39191DF01119798239C93F7CF57
:1021F000E217F30709F38191DF01119784278C938C
:10220000F7CF0F931F93FA01DC0156964C91569726
:102210004230E9F04330A1F1413061F514964D911F
:102220005C91DA01AE1BBF0BFD01E21BF30B77FDE6
:102230000BC0DC0116964D915C916417750724F470
:10224000AB01BF010E9499101F910F910895149640
:102250004D915C91DA01A61BB70BBD01615071096C
:10226000DC0116964D915C91DA01AE1BBF0BFD01AE
:10227000E21BF30B77FDE8CFAF010E94EA0FE4CF3A
:1022800016964D915C91DA01A61BB70BBD0161500A
:102290007109CDCF0F931F93FA01DC0156964C9133
:1022A00056974230A9F0433091F1413019F5149618
:1022B0004D915C91DA01AE1BBF0BFD013197F7FD2B
:1022C00004C0AB01BF010E94EA0F1F910F91089556
:1022D00014964D915C91DA01A61BB70BBD01DC0190
:1022E00016964D915C91DA01AE1BBF0BFD01319743
:1022F000621B730BF7FDE9CFDC0116964D915C91E3
:10230000E417F50714F7AF010E949910DECF169677
:102310004D915C91DA01A61BB70BBD01621B730BDB
:10232000CECFFC0177FD64C0808591856817790761
:102330000CF05EC057FD5CC0828593854817590735
:102340000CF056C086898230B1F0833029F181309B
:1023500041F484819581841B950BAB01BC016150D4
:1023600071092130310509F108F443C022303105EB
:1023700009F463C0089584819581DC01A61BB70B25
:10238000BD016150710986819781DC01A41BB50BE9
:10239000AD0141505109E5CF86819781861B970B8E
:1023A000BA01AC0141505109DCCFCA0157FD079673
:1023B000A3E095958795AA95E1F7A481B5818A9FB9
:1023C00090018B9F300D9A9F300D1124620F731F67
:1023D000078CF0A1E02DE60FF71F4770552721E08D
:1023E00030E001C0220F4A95EAF78081822B80837A
:1023F0000895CA0157FD079633E0959587953A955C
:10240000E1F7A481B5818A9F90018B9F300D9A9F3F
:10241000300D1124620F731F078CF0A1E02DE60F21
:10242000F71F4770552781E090E001C0880F4A955B
:10243000EAF7809590818923DACFCA0157FD079684
:1024400023E0959587952A95E1F7A481B5818A9F28
:1024500090018B9F300D9A9F300D1124620F731FD6
:10246000078CF0A1E02DE60FF71F4770552721E0FC
:1024700030E001C0220F4A95EAF780818227B7CF6A
:1024800008958EBD00000DB407FEFDCF8EB50895F2
:10249000EF92FF920F931F93CF93DF937C01C62F90
:1024A0008091100390911103009709F459C0209175
:1024B000140331E0309349022093480210924702FE
:1024C00010924602DC01ED91FC910190F081E02D2B
:1024D00060E009958701EE24E394F12CD1E0C1502E
:1024E0008091100390911103CF3F91F1B0E2EB1670
:1024F000F104D8F00E940E0980911003909111030D
:1025000020911403D093490220934802109247026D
:1025100010924602DC01ED91FC910190F081E02DDA
:1025200060E00995EE24E394F12C809110039091E2
:102530001103F8016491DC01ED91FC910190F081AF
:10254000E02D0995BFEFEB1AFB0A0F5F1F4FC7CFB6
:10255000DF91CF911F910F91FF90EF900C940E0996
:10256000E0912003F09121039081809126038095D2
:10257000892380838701C15008F438C0F801849111
:1025800020910E0330910F03232B29F00E9441125A
:102590000F5F1F4FF0CF28E030E040E8E0911C03D0
:1025A000F0911D0390912403582F5423D9F05081AA
:1025B000952B9083E0911E03F0911F039081509121
:1025C0002503952B9083E0911E03F0911F0350810A
:1025D000909125039095952390834695215031093C
:1025E000E9F6D6CF508190959523E3CFDF91CF9137
:1025F0001F910F91FF90EF9008951F93CF93DF935A
:10260000EC018D8D9E8D009721F1162F29A131E0CF
:1026100030934902209348021092470210924602DA
:10262000DC01ED91FC910190F081E02D60E00995D5
:102630008D8D9E8DDC01ED91FC910190F081E02D5E
:10264000612F09958D8D9E8DDF91CF911F910C94F7
:102650000E09ADA5BEA59C918BA9809589238C936D
:102660008B8D9C8D892B31F0862FDF91CF911F911F
:102670000C94411228E030E080E8A9A5BAA599A9F8
:10268000462F4823C1F04C91942B9C93ABA5BCA53D
:102690009C914AA9942B9C93ABA5BCA54C919AA95B
:1026A000909594239C9386952150310931F7DF91C1
:1026B000CF911F9108954C9190959423E6CF8CBDB6
:1026C0009DBD08951F93CF93DF93EC01162F8D8D41
:1026D0009E8D892BB1F12DA93EA94FA958AD60E07F
:1026E00074E284EF90E00E94C62220513109410932
:1026F000510956954795379527952093B80066EA76
:10270000111167EACE010E94FD128D8D9E8D892BDD
:1027100041F129AD3AAD4BAD5CAD60E074E284EFC0
:1027200090E00E94C6222051310941095109569575
:102730004795379527952093B800DF91CF911F914A
:1027400008958B8D9C8D892B21F08EAD9FAD0E94BD
:102750005F13EFA5F8A990818CA9809589238083C8
:10276000CECFEFA5F8A980819CA9892B8083E5CFE6
:10277000089590E080E008952091F9023091FA02E6
:10278000C901079697FD079623E0959587952A95A9
:10279000E1F72091F7023091F802829FA001839F18
:1027A000500D929F500D112470E060E08091120353
:1027B000909113030C94DE24CF93DF93EC01888176
:1027C0009981009711F00E948A23198218821D8234
:1027D0001C821B821A82DF91CF910895FC018081B7
:1027E0009181009711F00C948A2308950E94D024BF
:1027F0000F931F93CF93DF93EC018881998100970A
:1028000059F02A813B812617370730F081E0DF91AC
:10281000CF911F910F9108958B016F5F7F4F0E94A1
:102820001324009759F0998388831B830A832C8192
:102830003D81232B59F7FC011082E8CF80E0E7CFE0
:10284000EF92FF920F931F93CF93DF936115710562
:1028500041F480E0DF91CF911F910F91FF90EF90B5
:10286000089541155105B1F07B01EC010C811D81EA
:10287000040F151FB8010E94F813882351F3288113
:1028800039818C819D81B701820F931F0E94E524BD
:102890001D830C8381E0DECFCF93DF93EC01FB013E
:1028A00044815581608171810E942014811103C08F
:1028B000CE010E94DC13CE01DF91CF910895EF92FB
:1028C000FF920F931F93CF93DF93EC017B018A015B
:1028D000BA010E94F81381110BC0CE010E94DC13D3
:1028E000CE01DF91CF911F910F91FF90EF9008954E
:1028F0001D830C83B701888199810E94E524F0CF64
:10290000EF92FF920F931F93CF93DF93CDB7DEB774
:10291000A1970FB6F894DEBF0FBECDBF7C01CB01EF
:10292000BA01F70111821082138212821582148279
:102930008E010F5F1F4F22E044E00E94A51C00970C
:10294000C9F0FC0101900020E9F73197AF01481B65
:10295000590BBC01C7010E945F14A1960FB6F894F1
:10296000DEBF0FBECDBFDF91CF911F910F91FF90C2
:10297000EF900895C7010E94DC13EFCF85ED80939F
:10298000BC008091BB019091BC01A091BD01B091B0
:10299000BE010796A11DB11D23E0B695A795979599
:1029A00087952A95D1F72091BC0024FD03C0109291
:1029B000040208954091BB015091BC016091BD019A
:1029C0007091BE01452B462B472B69F30097A1055B
:1029D000B10541F025E32A95F1F700000197A1091F
:1029E000B109E1CF8091BA010C9468081F920F924F
:1029F0000FB60F9211242F933F934F935F936F93D2
:102A00007F938F939F93AF93BF93EF93FF938AE44A
:102A100092E00E94AB06FF91EF91BF91AF919F9121
:102A20008F917F916F915F914F913F912F910F9077
:102A30000FBE0F901F9018951F920F920FB60F9216
:102A400011242F938F939F93EF93FF93E0915A025A
:102A5000F0915B028081E0916002F091610282FD61
:102A60001BC09081809163028F5F8F7320916402FD
:102A7000821741F0E0916302F0E0E65BFD4F958F35
:102A800080936302FF91EF919F918F912F910F900F
:102A90000FBE0F901F9018958081F4CF1F920F9258
:102AA0000FB60F9211242F933F938F939F93AF9361
:102AB000BF9380912B0290912C02A0912D02B09196
:102AC0002E0230912A0223E0230F2D3758F501966C
:102AD000A11DB11D20932A0280932B0290932C02FA
:102AE000A0932D02B0932E0280912F02909130027C
:102AF000A0913102B09132020196A11DB11D8093C7
:102B00002F0290933002A0933102B0933202BF9112
:102B1000AF919F918F913F912F910F900FBE0F908A
:102B20001F90189526E8230F0296A11DB11DD2CF44
:102B30001F920F920FB60F9211242F933F934F9332
:102B40005F936F937F938F939F93AF93BF93EF9315
:102B5000FF938091B900887F803609F44AC0F0F570
:102B6000883209F4A7C018F5803109F49BC0B8F485
:102B7000882309F4F9C0883009F494C0FF91EF91DB
:102B8000BF91AF919F918F917F916F915F914F9185
:102B90003F912F910F900FBE0F901F901895883185
:102BA00009F488C0803251F78093030214C0803446
:102BB00009F49DC040F48033B9F38833F9F680936B
:102BC000030285ECB0C0803509F485C0883509F46E
:102BD00096C0883499F60E94BE14D0CF883909F483
:102BE0008CC038F5883729F050F4883611F08037DA
:102BF00029F683E0809304021092020257C08838BD
:102C000009F47BC0803919F0803809F0B7CF809182
:102C10000202803208F071C0E091020281E08E0F62
:102C2000809302028091BB00F0E0EE51FE4F808362
:102C30003DC0803B39F0E0F4803A09F479C0883A2D
:102C400009F09CCF84E0809304021092E10110927D
:102C5000E001E0913602F091370209958091E001A0
:102C600081110FC081E08093E0011092C00109C082
:102C7000803C09F4A6CF883C09F4A3CF883B09F037
:102C80007DCFE091E10181E08E0F8093E101F0E0E2
:102C9000E054FE4F80818093BB009091E1018091D0
:102CA000E00129C0809129028093BB0085EC8093CC
:102CB000BC0064CF9091280280912702981758F5A4
:102CC000E091280281E08E0F80932802F0E0E95F16
:102CD000FD4F8081E9CFE091280281E08E0F809343
:102CE00028028091BB00F0E0E95FFD4F8083909166
:102CF0002802809127029817C8F285E8D8CFE09182
:102D0000280281E08E0F809328028091BB00F0E0C2
:102D1000E95FFD4F80838091060281115CCF81E0E5
:102D20008093050284EA8093BC001092040226CFAF
:102D300085EC8093BC0010920402809102028032E4
:102D400030F4E0910202F0E0EE51FE4F108260910B
:102D5000020270E0E0913402F091350282EE91E0DF
:102D60000995109202020ACF1092030234CFEAE4CE
:102D7000F2E01382128248EE53E060E070E0448398
:102D80005583668377838AE091E09183808385EC25
:102D900090E09587848784EC90E09787868780EC25
:102DA00090E0918B808B81EC90E0938B828B82EC16
:102DB00090E0958B848B86EC90E0978B868B118EC0
:102DC000128E138E148EA7EEB2E013961C921E92F2
:102DD000129714964D935D936D937C9317978CE1A6
:102DE00091E011969C938E93E3EFF2E013821282AE
:102DF00020E830E03583248380E490E09783868365
:102E00003187208793878287168A158614861786CE
:102E1000168681E0858B848B2FEF3FEF338B228BDF
:102E2000318B208B878B108E128E118E8EE291E06B
:102E300091838083148E138EB68FA58F10A2178E68
:102E40008FEF84A385A386A387A380A780E89AE158
:102E5000A6E0B0E085AB96ABA7ABB0AF80EA96E852
:102E6000A1E0B0E081AF92AFA3AFB4AF80E586AF91
:102E700017AE0895CF93DF93CDB7DEB7A2970FB605
:102E8000F894DEBF0FBECDBF789484B5826084BD58
:102E900084B5816084BD85B5826085BD85B581605E
:102EA00085BD80916E00816080936E0010928100DC
:102EB0008091810082608093810080918100816097
:102EC0008093810080918000816080938000809158
:102ED000B10084608093B1008091B00081608093E4
:102EE000B00080917A00846080937A0080917A00AB
:102EF000826080937A0080917A00816080937A006A
:102F000080917A00806880937A001092C10060E01E
:102F100080E10E94860760E08FE00E94860760E003
:102F20008EE00E948607E0915A02F0915B0282E0F7
:102F30008083E0915602F09157021082E09158028E
:102F4000F09159028FEC808310926202E0915E0250
:102F5000F0915F0286E08083E0915C02F0915D0277
:102F6000808180618083E0915C02F0915D028081CC
:102F700088608083E0915C02F0915D0280818068CE
:102F80008083E0915C02F0915D0280818F7D80837F
:102F90008091120390911303892B11F10E94BC13AD
:102FA0002091F9023091FA028091F7029091F80293
:102FB000213231050CF01AC2B9016052710977FF54
:102FC00002C06F5F7F4F759567958357910997FD95
:102FD000019600E210E023E730E046E557E019C231
:102FE0002091F9023091FA02C901079697FD0796E0
:102FF000B3E095958795BA95E1F72091F702309166
:10300000F802AC01429FC001439F900D529F900D6A
:1030100011240E94EE229093130380931203892BB4
:1030200009F0BCCF0E94BC13CE0101961C01412CBB
:1030300074E2572E74EF672E712C01E010E080E1EE
:103040000E94B707BC01990F880B990B0E94FC1EC8
:103050004B015C018092420290924302A092440292
:10306000B09245028FE00E94B707BC01990F880B10
:10307000990B0E94FC1E9B01AC0160E070EC8FE795
:1030800094E40E94992020E030E040E85FE30E9451
:103090002C2020E030E44CE156E40E94371F9B01D5
:1030A000AC0160E079ED88EF97E40E9499202EE36F
:1030B00036E245E95FE30E94912160933E027093FE
:1030C0003F0280934002909341028EE00E94B70736
:1030D000BC01990F880B990B0E94FC1E9B01AC014F
:1030E00060E070EC8FE794E40E94992020E030E0EB
:1030F00040E85FE30E942C2020E030E44CE156E4FD
:103100000E94371F0E940B21072E000C880B990B81
:103110000E94FC1E0E9449216B017C012CE63FECC1
:1031200048E554E30E94371FA70196010E94371F0C
:10313000A70196010E94371F6F8F78A389A39AA3D6
:1031400026ED34E649E759E3C701B6010E94371F6F
:103150002BEC38E444E85AE30E942D209B01AC019B
:103160006F8D78A189A19AA10E942D209B01AC01AD
:1031700060E070E080E89FE30E94992023E333E958
:1031800048E853E40E942C2060933A0270933B027B
:1031900080933C0290933D02B501A401CE010796B5
:1031A0000E94801440913A0250913B0260913C028F
:1031B00070913D02CE010D960E94801440913E0216
:1031C00050913F026091400270914102CE014396BE
:1031D0000E9480141A8E198E1C8E1B8E1E8E1D8EC0
:1031E0004EE050E066E571E0CE0149960E945F1422
:1031F000BE016D5E7F4FCE0149960E944C147C014A
:103200004EE050E065E671E00E942014811103C099
:10321000C7010E94DC13BE01635F7F4FC7010E949C
:103220004C147C0144E050E064E771E00E942014FB
:10323000811103C0C7010E94DC13BE01695F7F4F8B
:10324000C7010E944C141A8219821C821B821E82A2
:103250001D822816390669F0DC016D917C91119769
:103260006115710531F014964D915C91C1010E9478
:103270005F140E94BC13B1E0B0930703B09308033E
:1032800010930603009305031093040300930303B4
:10329000109300030093FF021093020300930103B5
:1032A0004D815E8169817A8183EF92E00E942D06D3
:1032B0008091100390911103892B09F48DC2209104
:1032C00028033091290340912A0350912B03C30115
:1032D000B2010E94C6222051310941095109569577
:1032E0004795379527952093B80065E086EF9BE0DA
:1032F0000E9448126091F702615083EF92E00E94B1
:10330000FD122091F9023091FA02C901079697FD4A
:10331000079633E0959587953A95E1F72091F70266
:103320003091F802829F5001839FB00C929FB00CA5
:103330001124C0901203D090130380911003909138
:103340001103AC0CBD1C009709F4A2C22091140318
:10335000E1E0E09349022093480210924702109264
:103360004602DC01ED91FC910190F081E02D60E4DA
:103370000995EE24E394F12C8091100390911103B0
:10338000AC14BD0409F43FC2B0E2EB16F104E0F066
:103390000E940E0980911003909111032091140353
:1033A000E1E0E09349022093480210924702109214
:1033B0004602DC01ED91FC910190F081E02D60E48A
:1033C0000995EE24E394F12C809110039091110360
:1033D000F60161916F01DC01ED91FC910190F081AA
:1033E000E02D0995BFEFEB1AFB0AC6CFB901605477
:1033F000710977FF02C06F5F7F4F759567958255A2
:10340000910997FD019600E410E022E530E046E3E3
:1034100059E0959587950E94DC0E82E08093150314
:103420008091100390911103892B09F4DFC08CE384
:1034300080931403109239021092380210924702BE
:10344000109246020E944A088BE296E0909337025F
:10345000809336028CE296E090933502809334029A
:1034600080911B0387FD1EC061E00E94860761E01A
:1034700080911B030E943A0761E070E080E090E0D9
:103480000E94F10760E080911B030E943A076AE006
:1034900070E080E090E00E94F10761E080911B0302
:1034A0000E943A078091100390911103892B09F42F
:1034B0005CC1209128033091290340912A03509147
:1034C0002B0360E074E284EF90E00E94C62220515A
:1034D000310941095109569547953795279520930C
:1034E000B80064E080E297E00E9448126091F9021F
:1034F000615083EF92E00E94FD1264E08CE197E05E
:103500000E9448128091150360E1813009F064E166
:1035100083EF92E00E94FD1264E088E197E00E9450
:1035200048128FE8809330038091F7029091F8025F
:103530008038910509F032C18091F9029091FA0228
:103540008034910509F03AC180911503813009F06A
:1035500023C18FE98093300312E16AED83EF92E09B
:103560000E94FD12612F83EF92E00E94FD1261E83C
:1035700083EF92E00E94FD126091300383EF92E0AE
:103580000E94FD1269ED83EF92E00E94FD1280918E
:10359000150362E2813009F061EF83EF92E00E944F
:1035A000FD1266E082E197E00E94481280911003CC
:1035B00090911103892B09F405C120912C033091BE
:1035C0002D0340912E0350912F0360E074E284EFAD
:1035D00090E00E94C62220513109410951095695B7
:1035E0004795379527952093B8001CCD61E08091D1
:1035F00019030E94860761E080911A030E948607E2
:1036000080911903082E000C990BFC01EE5BF84F1A
:10361000E491F0E0EE0FFF1FE85CF84F2591349144
:103620003093210320932003FC01EC5DF84FE491DB
:10363000E093260380911A03082E000C990BFC01DD
:10364000EE5BF84FE491F0E0EE0FFF1FE85CF84FFF
:10365000A591B491B0932303A0932203FC01EC5DE8
:10366000F84FE491E09327038C91E82BEC93809141
:103670000E0390910F03892B09F434C01FB7F894FF
:1036800080913302811127C0ECE4F7E08491EEE2EF
:10369000F7E09491E82FF0E0EE0FFF1FE85FF84F9E
:1036A000A591B491EC91E92321F461E08AE00E94B4
:1036B0003A0761E08AE00E9486078CB580618CBD84
:1036C0008CB580648CBD61E08DE00E94860761E06E
:1036D0008BE00E948607809133028F5F80933302D4
:1036E0001FBFBECE61E0809117030E94860761E094
:1036F000809118030E94860780911703082E000C02
:10370000990BFC01EE5BF84FE491F0E0EE0FFF1F28
:10371000E85CF84F2591349130931D0320931C03EE
:10372000FC01EC5DF84FE491E093240380911803D1
:10373000082E000C990BFC01EE5BF84FE491F0E0D1
:10374000EE0FFF1FE85CF84FA591B491B0931F03F3
:10375000A0931E03FC01EC5DF84FE491E093250378
:103760008C91E095E823EC937BCE80910E039091B1
:103770000F03892B31F080913103909132030E9425
:103780005F13E0912203F09123039081809127033E
:10379000809589238083A5CE8FECDCCE8036910581
:1037A00069F48091F9029091FA02409739F480917E
:1037B0001503813029F480E18093300312E0CDCEEF
:1037C0008FEAFACFE0912203F09123038081909158
:1037D0002703892B808326CC80910E0390910F03C1
:1037E000892B31F080913103909132030E945F1355
:1037F000E0912203F091230390818091270380952B
:103800008923808372CD0E940E09809110039091CC
:103810001103892B09F480C020912C0330912D03D2
:1038200040912E0350912F03C301B2010E94C62282
:1038300020513109410951095695479537952795EA
:103840002093B800C1010E94EE13CE0149960E9458
:10385000EE13CE0143960E94EE13CE010D960E9408
:10386000EE13CE0107960E94EE1368EE73E080E03F
:1038700090E00E94F10720E030E0232B09F4DFCB39
:103880000E949706882309F4DACB0E940000D5CB6A
:10389000E0912003F0912103808190912603892BF0
:1038A0008083CA14DB0409F4B0CFF60181916F0163
:1038B00020910E0330910F03232B19F00E94411227
:1038C000F0CF28E030E040E8E0911C03F0911D03C8
:1038D00090912403542F5823D9F05081952B908335
:1038E000E0911E03F0911F03908150912503952BC9
:1038F0009083E0911E03F0911F0350819091250366
:10390000909595239083469521503109E9F6C9CFCA
:10391000508190959523E3CFE0912203F09123030A
:10392000808190912703892B80838CCF8EE291E058
:103930009093F4028093F302809112039091130309
:10394000009711F00C948A230895EF920F931F9320
:10395000CF93DF93E80134E047FD34E1042E000CFF
:10396000550B57FF03C0519541955109E32E022F86
:10397000242FAE010E94C31CCE01DF91CF911F9175
:103980000F91EF900895A9E0B0E0E9ECFCE10C9410
:10399000FB1F6A01F22EB02E102FFBE3AF2EA016F4
:1039A00008F41BE31F5F012F27E0AE014F5F5F4F5D
:1039B0000E94221EBC018981982F9970913009F4D0
:1039C0003FC09BE2E1FC04C09E2D9170E0FC3AC038
:1039D0005E2D5071E82FE87083FF46C084E091119E
:1039E00001C083E0EF2DE81B8F1508F0E0E0D60161
:1039F0008E2F20E2552351F1992329F0D6019C9373
:103A0000C60101966C0196012D5F3F4FE2FE24C076
:103A10008EE4D6018C9391E411969C9311971296A3
:103A20008C93D9018E2F90E281111BC0E20FF32FEE
:103A3000F11D10828EEF9FEF2996ECE00C94172079
:103A40009DE2C6CF90E2C4CF2D9381508111FCCF6F
:103A5000CE0ED11CE0E0D0CF8EE6D6018C9391E65D
:103A6000DBCF9D938150E0CF482F447082FF3DC053
:103A700084E0911101C083E08F1510F4EF2DE81B55
:103A8000D6018E2F20E2552309F1992329F0D60182
:103A90009C93C60101966C0196012D5F3F4FE2FE9B
:103AA0001BC089E4D6018C938EE411968C931197F8
:103AB00086E412968C93D9018E2F90E2882309F424
:103AC000B5CF9D938150FACF2D9381508111FCCFBA
:103AD000CE0ED11CE0E0D9CF89E6D6018C938EE6DC
:103AE00011968C93119786E6E4CF9B0177FF02C075
:103AF00030E020E0A1E0B0E0911102C0B0E0A0E031
:103B0000F9013196AE0FBF1F8B2C912CBB2009F40D
:103B100061C05401EFEFAE1ABE0AAA0DBB1DFA1622
:103B20001B0619F014F04F2D4A1B511188C0E3FCFD
:103B300059C07601A42FB0E2A1114FC0C40ED11C10
:103B4000992309F45BC040E0D6011196F6019083F9
:103B50006D01552309F448C0012F060F9A81582F93
:103B6000507184FF03C0913309F4015010160CF01A
:103B700047C0093008F008E0EEE2FE2E5B01A01A13
:103B8000B10885019194819491082F3F320729F45F
:103B9000D601FC92F60131966F016217730794F11A
:103BA000021713077CF5DB01A21BB30BAA24A39415
:103BB000B12CAC0EBD1EAA0DBB1D11968C912150CF
:103BC0003109D601119628153905F4F0F6018083E4
:103BD0006D01DBCFB12CA12CA0CFF701B1937F01F8
:103BE000A150AACF9111B0CFD601942F50E302C0BB
:103BF0005D9391509111FCCFC40ED11C40E0ACCF2D
:103C000001E0BACF80E3DBCF6217730731F496335C
:103C100088F4953311F4552369F0F6018083FD0192
:103C2000842F90E2811108C0A40FB11D1C9290E076
:103C300080E002CF81E3F1CF91938150F3CF9111D6
:103C400083CF8ACF283008F027E03327DA01990F95
:103C5000311D87FD916000966105710539F4326070
:103C60002E5F3D9330E32A95E1F708959F3F30F0B2
:103C700080387105610509F03C5F3C5F3D939130F0
:103C800008F08068911DDF93CF931F930F93FF92ED
:103C9000EF92192F987F9695E92F96959695E90FB3
:103CA000FF27EC5BFE4F99273327EE24FF24A70163
:103CB000E70105900894079428F4360FE71EF81ED4
:103CC000491F511D660F771F881F991F0694A1F782
:103CD0000590079428F4E70EF81E491F561FC11DD2
:103CE000770F881F991F661F0694A1F70590079408
:103CF00028F4F80E491F561FC71FD11D880F991FA2
:103D0000661F771F0694A1F70590079420F4490FCA
:103D1000561FC71FD81F990F661F771F881F06944D
:103D2000A9F784911095177041F0D695C7955795CE
:103D30004795F794E7941A95C1F7EAEEF0E0689496
:103D40001590159135916591959105907FE2739548
:103D5000E118F10A430B560BC90BD009C0F7E10C6F
:103D6000F11E431F561FC91FD01D7EF4703311F47E
:103D70008A95E6CFE894015030F0080F0AF4002746
:103D8000021708F4202F2395022F7A3328F079E3C5
:103D90007D932A95E9F710C07D932A9589F60694BC
:103DA00097956795379517951794E118F10A430B86
:103DB000560BC90BD00998F023957E9173957A33F1
:103DC00008F070E37C932013B8F77E9170617D93C7
:103DD00030F0839571E37D9370E32A95E1F7112428
:103DE000EF90FF900F911F91CF91DF91992787FD61
:103DF00090950895E89409C097FB3EF490958095BE
:103E0000709561957F4F8F4F9F4F9923A9F0F92FA0
:103E100096E9BB279395F695879577956795B7951E
:103E2000F111F8CFFAF4BB0F11F460FF1BC06F5F04
:103E30007F4F8F4F9F4F16C0882311F096E911C016
:103E4000772321F09EE8872F762F05C0662371F037
:103E500096E8862F70E060E02AF09A95660F771F4B
:103E6000881FDAF7880F9695879597F908950E942D
:103E70004A1F0C94BB1F0E94AD1F38F00E94B41F54
:103E800020F0952311F00C94A41F0C94AA1F112468
:103E90000C94EF1F0E94CC1F70F3959FC1F3950FF8
:103EA00050E0551F629FF001729FBB27F00DB11DBE
:103EB000639FAA27F00DB11DAA1F649F6627B00D4E
:103EC000A11D661F829F2227B00DA11D621F739F37
:103ED000B00DA11D621F839FA00D611D221F749F45
:103EE0003327A00D611D231F849F600D211D822F8C
:103EF000762F6A2F11249F5750409AF0F1F08823B3
:103F00004AF0EE0FFF1FBB1F661F771F881F9150DF
:103F10005040A9F79E3F510580F00C94A41F0C94CB
:103F2000EF1F5F3FE4F3983ED4F38695779567954E
:103F3000B795F795E7959F5FC1F7FE2B880F911D09
:103F40009695879597F9089597F99F6780E870E0AF
:103F500060E008959FEF80EC089500240A941616FF
:103F6000170618060906089500240A941216130667
:103F7000140605060895092E0394000C11F48823F5
:103F800052F0BB0F40F4BF2B11F460FF04C06F5F11
:103F90007F4F8F4F9F4F089557FD9058440F551FE7
:103FA00059F05F3F71F04795880F97FB991F61F0BB
:103FB0009F3F79F087950895121613061406551F32
:103FC000F2CF4695F1DF08C0161617061806991F9E
:103FD000F1CF86957105610508940895E894BB2793
:103FE00066277727CB0197F908952F923F924F923A
:103FF0005F926F927F928F929F92AF92BF92CF9279
:10400000DF92EF92FF920F931F93CF93DF93CDB781
:10401000DEB7CA1BDB0B0FB6F894DEBF0FBECDBFF9
:1040200009942A88398848885F846E847D848C84CA
:104030009B84AA84B984C884DF80EE80FD800C81D3
:104040001B81AA81B981CE0FD11D0FB6F894DEBFB6
:104050000FBECDBFED0108955058BB27AA270E947F
:1040600044200C94BB1F0E94AD1F38F00E94B41F67
:1040700020F039F49F3F19F426F40C94AA1F0EF493
:10408000E095E7FB0C94A41FE92F0E94CC1F58F386
:10409000BA17620773078407950720F079F4A6F52D
:1040A0000C94EE1F0EF4E0950B2EBA2FA02D0B01F1
:1040B000B90190010C01CA01A0011124FF27591B6D
:1040C00099F0593F50F4503E68F11A16F040A22F73
:1040D000232F342F4427585FF3CF469537952795E4
:1040E000A795F0405395C9F77EF41F16BA0B620BE3
:1040F000730B840BBAF09150A1F0FF0FBB1F661F2A
:10410000771F881FC2F70EC0BA0F621F731F841F6C
:1041100048F4879577956795B795F7959E3F08F092
:10412000B0CF9395880F08F09927EE0F9795879554
:1041300008950E94AD200C94BB1F0E94B41F58F03C
:104140000E94AD1F40F029F45F3F29F00C94A41F9A
:1041500051110C94EF1F0C94AA1F0E94CC1F68F3FE
:104160009923B1F3552391F3951B550BBB27AA2730
:1041700062177307840738F09F5F5F4F220F331F6A
:10418000441FAA1FA9F335D00E2E3AF0E0E832D032
:1041900091505040E695001CCAF72BD0FE2F29D035
:1041A000660F771F881FBB1F261737074807AB0707
:1041B000B0E809F0BB0B802DBF01FF2793585F4F7C
:1041C0003AF09E3F510578F00C94A41F0C94EF1F19
:1041D0005F3FE4F3983ED4F3869577956795B7955E
:1041E000F7959F5FC9F7880F911D9695879597F969
:1041F0000895E1E0660F771F881FBB1F62177307E2
:104200008407BA0720F0621B730B840BBA0BEE1FF6
:1042100088F7E09508950E9412216894B1110C94DA
:10422000EF1F08950E94D41F88F09F5798F0B92F70
:104230009927B751B0F0E1F0660F771F881F991FDB
:104240001AF0BA95C9F714C0B13091F00E94EE1F70
:10425000B1E008950C94EE1F672F782F8827B85F80
:1042600039F0B93FCCF3869577956795B395D9F733
:104270003EF490958095709561957F4F8F4F9F4F3D
:10428000089516F00C941B220C94AA1F68940C94A9
:10429000A41F0E94D41FA8F39923C1F3AEF3DF93A8
:1042A000CF931F930F93FF92C92FDD2788232AF006
:1042B0002197660F771F881FDAF720E030E040E88B
:1042C0005FEB9FE3883920F0803E38F021968F77AE
:1042D0000E942D20E8E6F0E004C00E942D20E5E9D0
:1042E000F0E00E9429228B01BE01EC01FB2E6F57EA
:1042F00071097595771F880B990B0E94FC1E28E1A8
:1043000032E741E35FE30E944A1FAF2D9801AE01FF
:10431000FF900F911F91CF91DF910E9444200C9448
:10432000BB1FFA01EE0FFF1F309621053105A1F1E9
:104330006115710561F48038BFE39B0749F168940A
:104340009038810561F08038BFEF9B0741F09923D9
:104350004AF5FF3FE1053105210519F1E89408947C
:10436000E795D901AA2329F4AB2FBE2FF85FD0F32C
:1043700010C0FF5F70F4A695E0F7F73950F019F020
:10438000FF3A38F49F779F930DD00F9007FC905819
:10439000089546F00C94AA1F60E070E080E89FE367
:1043A00008954FE79F775F934F933F932F930E941A
:1043B00049212F913F914F915F910E94371F0C949B
:1043C000E92129F416F00C94A41F0C94EE1F0C9410
:1043D000AA1F0E94D41FA8F39638A0F707F80F92DF
:1043E000E8942BE33AEA48EB5FE70E944D1F0F92F7
:1043F0000F920F924DB75EB70F920E949222E2EC9D
:10440000F0E00E9429224F915F91EF91FF91E59595
:10441000EE1FFF1F49F0FE57E0684427EE0F441FD0
:10442000FA95E1F74195550B0E945C220F9007FE2B
:104430000C94502208959F3F31F0915020F48795BD
:1044400077956795B795880F911D9695879597F9FC
:104450000895DF93CF931F930F93FF92EF92DF9214
:104460007B018C01689406C0DA2EEF010E944A1F7E
:10447000FE01E894A5912591359145915591A6F3BA
:10448000EF010E944420FE019701A801DA9469F728
:10449000DF90EF90FF900F911F91CF91DF910895E2
:1044A0009B01AC0160E070E080E89FE30C949920F0
:1044B0000C94A41F0C941B220E94D41FD8F39923A0
:1044C000C9F3940F511DA3F39150504094F059F04B
:1044D000882332F0660F771F881F91505040C1F734
:1044E0009E3F51052CF7880F911D9695879597F95A
:1044F00008955F3FACF0983E9CF0BB27869577957A
:104500006795B79508F4B1609395C1F7BB0F58F75D
:1045100011F460FFE8CF6F5F7F4F8F4F9F4FE3CF66
:104520000C94EF1FFA01DC01AA0FBB1F9B01AC0129
:10453000BF5728F4222733274427507820C0B7518B
:1045400090F4AB2F0024469537952795011CA39531
:10455000D2F3002071F0220F331F441FB395DAF31A
:104560000ED00C942C2061307105A0E88A07B94662
:1045700030F49B01AC016627772788279078309626
:1045800021F020833183428353830895A1E21A2EC0
:10459000AA1BBB1BFD010DC0AA1FBB1FEE1FFF1FE7
:1045A000A217B307E407F50720F0A21BB30BE40B37
:1045B000F50B661F771F881F991F1A9469F760957E
:1045C0007095809590959B01AC01BD01CF01089538
:1045D000EE0FFF1F0590F491E02D09940F931F93A8
:1045E000CF93DF938230910510F482E090E0E09168
:1045F0003503F091360330E020E0B0E0A0E03097E2
:1046000099F42115310509F44AC0281B390B2430CF
:104610003105D8F58A819B816115710589F1FB010E
:1046200093838283FE0111C04081518102811381F5
:1046300048175907E0F04817590799F4109761F0A7
:1046400012960C93129713961C933296CF01DF911A
:10465000CF911F910F910895009335031093360366
:10466000F4CF2115310551F04217530738F0A90155
:10467000DB019A01BD01DF01F801C1CFEF01F9CFE4
:104680009093360380933503CDCFFE01E20FF31FE5
:10469000819391932250310939832883D7CF209178
:1046A000330330913403232B41F4209102013091E4
:1046B00003013093340320933303209100013091A0
:1046C00001012115310541F42DB73EB74091040198
:1046D00050910501241B350BE0913303F091340315
:1046E000E217F307A0F42E1B3F0B2817390778F0C9
:1046F000AC014E5F5F4F2417350748F04E0F5F1F28
:104700005093340340933303819391939FCFF0E010
:10471000E0E09CCFCF93DF930097E9F0FC01329764
:1047200013821282A0913503B0913603ED0130E07F
:1047300020E01097A1F420813181820F931F2091F6
:104740003303309134032817390709F061C0F0931F
:104750003403E0933303DF91CF910895EA01CE173C
:10476000DF07E8F54A815B819E0141155105B1F7EC
:10477000E901FB83EA8349915991C40FD51FEC17D6
:10478000FD0761F4808191810296840F951FE901F4
:1047900099838883828193819B838A83F0E0E0E020
:1047A00012968D919C9113970097B9F52D913C919C
:1047B0001197CD010296820F931F20913303309100
:1047C00034032817390739F6309751F5109236031C
:1047D00010923503B0933403A0933303BCCFD3833B
:1047E000C28340815181840F951FC817D90761F496
:1047F0004E5F5F4F88819981480F591F51834083D5
:104800008A819B81938382832115310509F0B0CF82
:10481000F0933603E09335039ECFFD01DC01C0CF5A
:1048200013821282D7CFB0E0A0E0E9E1F4E20C9469
:10483000F71F8C01009751F4CB010E94EE228C01EE
:10484000C801CDB7DEB7E0E10C941320FC01E60F00
:10485000F71F9C0122503109E217F30708F49DC0AD
:10486000D901CD91DC911197C617D70798F0C530C3
:10487000D10530F3CE0104978617970708F3C61BBE
:10488000D70B2297C193D1936D937C93CF010E9454
:104890008A23D6CF5B01AC1ABD0A4C018C0E9D1E3B
:1048A000A0913503B0913603512C412CF12CE12C11
:1048B000109731F580913303909134038815990551
:1048C00009F05CC04616570608F058C080910001F8
:1048D00090910101009741F48DB79EB7409104017A
:1048E00050910501841B950BE817F90708F055C096
:1048F000F0933403E0933303F90171836083A0CF15
:104900008D919C91119712966C90129713967C90B2
:104910001397A815B90559F56C0142E0C40ED11CD6
:10492000CA14DB0420F1AC014A195B09DA011296C2
:10493000159780F06282738251834083D9016D9311
:104940007C93E114F10471F0D7011396FC93EE937C
:10495000129776CF22968C0F9D1FF9019183808349
:10496000F301EFCFF0933603E093350369CF481698
:10497000590608F42C017D01D3019ACFCB010E9486
:10498000EE227C01009749F0AE01B8010E94D524C7
:10499000C8010E948A23870153CF10E000E050CF66
:1049A00081E090E0F8940C94EC24FB01DC0102C05F
:1049B00001900D9241505040D8F70895DC0101C09C
:1049C0006D9341505040E0F70895FB01DC010190E8
:1049D0000D920020E1F7089516E0CFEFD5E004C076
:1049E000FE010E94E8222196C030D107C9F7F89451
:0249F000FFCFF7
:1049F20000003703800000000000CD062D065A0695
:104A02001A078B0669067D0600000000DF08B2085F
:104A1200B9132A06AB089808890800000000300C78
:104A22002D06B913B81391112A06D50EAD0EC90E73
:104A3200BD0E3D0F2A06F609621301114A11F60D49
:104A4200D90D610D020D4C756D696E6F73696461EC
:104A520064653A20000A54656D70657261747572FE
:0A4A6200613A20000A50483A0000B3
:00000001FF
